{"contracts/Arbitrage.sol":{"Arbitrage":{"abi":[{"inputs":[],"stateMutability":"nonpayable","type":"constructor"},{"inputs":[],"name":"QUOTER_ADDRESS","outputs":[{"internalType":"address","name":"","type":"address"}],"stateMutability":"view","type":"function"},{"inputs":[{"internalType":"address[]","name":"_routerPath","type":"address[]"},{"internalType":"address[]","name":"_tokenPath","type":"address[]"},{"internalType":"uint24","name":"_fee","type":"uint24"},{"internalType":"uint256","name":"_token1_needed","type":"uint256"},{"internalType":"uint256","name":"_flashAmount","type":"uint256"},{"internalType":"bool","name":"_firstUni","type":"bool"}],"name":"executeTrade","outputs":[],"stateMutability":"nonpayable","type":"function"},{"inputs":[],"name":"factory","outputs":[{"internalType":"address","name":"","type":"address"}],"stateMutability":"view","type":"function"},{"inputs":[],"name":"owner","outputs":[{"internalType":"address","name":"","type":"address"}],"stateMutability":"view","type":"function"},{"inputs":[{"internalType":"contract IERC20[]","name":"tokens","type":"address[]"},{"internalType":"uint256[]","name":"amounts","type":"uint256[]"},{"internalType":"uint256[]","name":"feeAmounts","type":"uint256[]"},{"internalType":"bytes","name":"userData","type":"bytes"}],"name":"receiveFlashLoan","outputs":[],"stateMutability":"nonpayable","type":"function"},{"inputs":[],"name":"router","outputs":[{"internalType":"address","name":"","type":"address"}],"stateMutability":"view","type":"function"}],"evm":{"bytecode":{"linkReferences":{},"object":"608060405273cf77a3ba9a5ca399b7c97c74d54e5b1beb874e43600160006101000a81548173ffffffffffffffffffffffffffffffffffffffff021916908373ffffffffffffffffffffffffffffffffffffffff16021790555073420dd381b31aef6683db6b902084cb0ffece40da600260006101000a81548173ffffffffffffffffffffffffffffffffffffffff021916908373ffffffffffffffffffffffffffffffffffffffff160217905550733d4e44eb1374240ce5f1b871ab261cd16335b76a600360006101000a81548173ffffffffffffffffffffffffffffffffffffffff021916908373ffffffffffffffffffffffffffffffffffffffff16021790555034801561010f57600080fd5b50336000806101000a81548173ffffffffffffffffffffffffffffffffffffffff021916908373ffffffffffffffffffffffffffffffffffffffff1602179055506121508061015f6000396000f3fe608060405234801561001057600080fd5b50600436106100625760003560e01c80635880c7eb146100675780637c84b9b4146100855780638da5cb5b146100a1578063c45a0155146100bf578063f04f2707146100dd578063f887ea40146100f9575b600080fd5b61006f610117565b60405161007c9190610fae565b60405180910390f35b61009f600480360381019061009a919061120b565b61013d565b005b6100a961039d565b6040516100b69190610fae565b60405180910390f35b6100c76103c1565b6040516100d49190610fae565b60405180910390f35b6100f760048036038101906100f29190611549565b6103e7565b005b610101610943565b60405161010e9190610fae565b60405180910390f35b600360009054906101000a900473ffffffffffffffffffffffffffffffffffffffff1681565b60006040518060a001604052808881526020018781526020018662ffffff16815260200185815260200183151581525060405160200161017d9190611788565b604051602081830303815290604052905060008054906101000a900473ffffffffffffffffffffffffffffffffffffffff1673ffffffffffffffffffffffffffffffffffffffff163373ffffffffffffffffffffffffffffffffffffffff16146101e657600080fd5b6000600167ffffffffffffffff81111561020357610202610ff3565b5b6040519080825280602002602001820160405280156102315781602001602082028036833780820191505090505b50905086600081518110610248576102476117aa565b5b602002602001015181600081518110610264576102636117aa565b5b602002602001019073ffffffffffffffffffffffffffffffffffffffff16908173ffffffffffffffffffffffffffffffffffffffff16815250506000600167ffffffffffffffff8111156102bb576102ba610ff3565b5b6040519080825280602002602001820160405280156102e95781602001602082028036833780820191505090505b5090508481600081518110610301576103006117aa565b5b60200260200101818152505073ba12222222228d8ba445958a75a0704d566bf2c873ffffffffffffffffffffffffffffffffffffffff16635c38449e308484876040518563ffffffff1660e01b81526004016103609493929190611a36565b600060405180830381600087803b15801561037a57600080fd5b505af115801561038e573d6000803e3d6000fd5b50505050505050505050505050565b60008054906101000a900473ffffffffffffffffffffffffffffffffffffffff1681565b600260009054906101000a900473ffffffffffffffffffffffffffffffffffffffff1681565b73ba12222222228d8ba445958a75a0704d566bf2c873ffffffffffffffffffffffffffffffffffffffff163373ffffffffffffffffffffffffffffffffffffffff161461043357600080fd5b6000818060200190518101906104499190611c49565b9050600084600081518110610461576104606117aa565b5b602002602001015190506001151582608001511515036105d9576104ee8260000151600081518110610496576104956117aa565b5b602002602001015183602001516000815181106104b6576104b56117aa565b5b60200260200101518385602001516001815181106104d7576104d66117aa565b5b602002602001015186606001518760400151610969565b6105d38260200151600181518110610509576105086117aa565b5b60200260200101518360200151600081518110610529576105286117aa565b5b60200260200101518460200151600181518110610549576105486117aa565b5b602002602001015173ffffffffffffffffffffffffffffffffffffffff166370a08231306040518263ffffffff1660e01b81526004016105899190610fae565b602060405180830381865afa1580156105a6573d6000803e3d6000fd5b505050506040513d601f19601f820116820180604052508101906105ca9190611c92565b84600030610a8f565b50610733565b61062a82602001516000815181106105f4576105f36117aa565b5b60200260200101518360200151600181518110610614576106136117aa565b5b6020026020010151838560600151600030610a8f565b506107328260000151600181518110610646576106456117aa565b5b60200260200101518360200151600181518110610666576106656117aa565b5b60200260200101518460200151600181518110610686576106856117aa565b5b602002602001015173ffffffffffffffffffffffffffffffffffffffff166370a08231306040518263ffffffff1660e01b81526004016106c69190610fae565b602060405180830381865afa1580156106e3573d6000803e3d6000fd5b505050506040513d601f19601f820116820180604052508101906107079190611c92565b856020015160008151811061071f5761071e6117aa565b5b6020026020010151858760400151610969565b5b816020015160008151811061074b5761074a6117aa565b5b602002602001015173ffffffffffffffffffffffffffffffffffffffff1663a9059cbb73ba12222222228d8ba445958a75a0704d566bf2c8836040518363ffffffff1660e01b81526004016107a1929190611cce565b6020604051808303816000875af11580156107c0573d6000803e3d6000fd5b505050506040513d601f19601f820116820180604052508101906107e49190611cf7565b5081602001516000815181106107fd576107fc6117aa565b5b602002602001015173ffffffffffffffffffffffffffffffffffffffff1663a9059cbb60008054906101000a900473ffffffffffffffffffffffffffffffffffffffff168460200151600081518110610859576108586117aa565b5b602002602001015173ffffffffffffffffffffffffffffffffffffffff166370a08231306040518263ffffffff1660e01b81526004016108999190610fae565b602060405180830381865afa1580156108b6573d6000803e3d6000fd5b505050506040513d601f19601f820116820180604052508101906108da9190611c92565b6040518363ffffffff1660e01b81526004016108f7929190611cce565b6020604051808303816000875af1158015610916573d6000803e3d6000fd5b505050506040513d601f19601f8201168201806040525081019061093a9190611cf7565b50505050505050565b600160009054906101000a900473ffffffffffffffffffffffffffffffffffffffff1681565b610974858786610dac565b60006040518060e001604052808773ffffffffffffffffffffffffffffffffffffffff1681526020018573ffffffffffffffffffffffffffffffffffffffff1681526020018362ffffff1681526020013073ffffffffffffffffffffffffffffffffffffffff168152602001868152602001848152602001600073ffffffffffffffffffffffffffffffffffffffff1681525090508673ffffffffffffffffffffffffffffffffffffffff166304e45aaf826040518263ffffffff1660e01b8152600401610a429190611dc1565b6020604051808303816000875af1158015610a61573d6000803e3d6000fd5b505050506040513d601f19601f82011682018060405250810190610a859190611c92565b5050505050505050565b60608673ffffffffffffffffffffffffffffffffffffffff1663095ea7b3600160009054906101000a900473ffffffffffffffffffffffffffffffffffffffff16876040518363ffffffff1660e01b8152600401610aee929190611cce565b6020604051808303816000875af1158015610b0d573d6000803e3d6000fd5b505050506040513d601f19601f82011682018060405250810190610b319190611cf7565b506000600167ffffffffffffffff811115610b4f57610b4e610ff3565b5b604051908082528060200260200182016040528015610b8857816020015b610b75610f01565b815260200190600190039081610b6d5790505b50905060405180608001604052808973ffffffffffffffffffffffffffffffffffffffff1681526020018873ffffffffffffffffffffffffffffffffffffffff1681526020018515158152602001600260009054906101000a900473ffffffffffffffffffffffffffffffffffffffff1673ffffffffffffffffffffffffffffffffffffffff1681525081600081518110610c2657610c256117aa565b5b60200260200101819052506000600160009054906101000a900473ffffffffffffffffffffffffffffffffffffffff1673ffffffffffffffffffffffffffffffffffffffff16635509a1ac88846040518363ffffffff1660e01b8152600401610c90929190611ee0565b600060405180830381865afa158015610cad573d6000803e3d6000fd5b505050506040513d6000823e3d601f19601f82011682018060405250810190610cd69190611fa7565b9050600160009054906101000a900473ffffffffffffffffffffffffffffffffffffffff1673ffffffffffffffffffffffffffffffffffffffff1663cac88ea98883600181518110610d2b57610d2a6117aa565b5b60200260200101518588426040518663ffffffff1660e01b8152600401610d56959493929190611ff0565b6000604051808303816000875af1158015610d75573d6000803e3d6000fd5b505050506040513d6000823e3d601f19601f82011682018060405250810190610d9e9190611fa7565b925050509695505050505050565b6000808473ffffffffffffffffffffffffffffffffffffffff1663095ea7b360e01b8585604051602401610de1929190611cce565b604051602081830303815290604052907bffffffffffffffffffffffffffffffffffffffffffffffffffffffff19166020820180517bffffffffffffffffffffffffffffffffffffffffffffffffffffffff8381831617835250505050604051610e4b9190612086565b6000604051808303816000865af19150503d8060008114610e88576040519150601f19603f3d011682016040523d82523d6000602084013e610e8d565b606091505b5091509150818015610ebb5750600081511480610eba575080806020019051810190610eb99190611cf7565b5b5b610efa576040517f08c379a0000000000000000000000000000000000000000000000000000000008152600401610ef1906120fa565b60405180910390fd5b5050505050565b6040518060800160405280600073ffffffffffffffffffffffffffffffffffffffff168152602001600073ffffffffffffffffffffffffffffffffffffffff168152602001600015158152602001600073ffffffffffffffffffffffffffffffffffffffff1681525090565b600073ffffffffffffffffffffffffffffffffffffffff82169050919050565b6000610f9882610f6d565b9050919050565b610fa881610f8d565b82525050565b6000602082019050610fc36000830184610f9f565b92915050565b6000604051905090565b600080fd5b600080fd5b600080fd5b6000601f19601f8301169050919050565b7f4e487b7100000000000000000000000000000000000000000000000000000000600052604160045260246000fd5b61102b82610fe2565b810181811067ffffffffffffffff8211171561104a57611049610ff3565b5b80604052505050565b600061105d610fc9565b90506110698282611022565b919050565b600067ffffffffffffffff82111561108957611088610ff3565b5b602082029050602081019050919050565b600080fd5b6110a881610f8d565b81146110b357600080fd5b50565b6000813590506110c58161109f565b92915050565b60006110de6110d98461106e565b611053565b905080838252602082019050602084028301858111156111015761110061109a565b5b835b8181101561112a578061111688826110b6565b845260208401935050602081019050611103565b5050509392505050565b600082601f83011261114957611148610fdd565b5b81356111598482602086016110cb565b91505092915050565b600062ffffff82169050919050565b61117a81611162565b811461118557600080fd5b50565b60008135905061119781611171565b92915050565b6000819050919050565b6111b08161119d565b81146111bb57600080fd5b50565b6000813590506111cd816111a7565b92915050565b60008115159050919050565b6111e8816111d3565b81146111f357600080fd5b50565b600081359050611205816111df565b92915050565b60008060008060008060c0878903121561122857611227610fd3565b5b600087013567ffffffffffffffff81111561124657611245610fd8565b5b61125289828a01611134565b965050602087013567ffffffffffffffff81111561127357611272610fd8565b5b61127f89828a01611134565b955050604061129089828a01611188565b94505060606112a189828a016111be565b93505060806112b289828a016111be565b92505060a06112c389828a016111f6565b9150509295509295509295565b600067ffffffffffffffff8211156112eb576112ea610ff3565b5b602082029050602081019050919050565b600061130782610f8d565b9050919050565b611317816112fc565b811461132257600080fd5b50565b6000813590506113348161130e565b92915050565b600061134d611348846112d0565b611053565b905080838252602082019050602084028301858111156113705761136f61109a565b5b835b8181101561139957806113858882611325565b845260208401935050602081019050611372565b5050509392505050565b600082601f8301126113b8576113b7610fdd565b5b81356113c884826020860161133a565b91505092915050565b600067ffffffffffffffff8211156113ec576113eb610ff3565b5b602082029050602081019050919050565b600061141061140b846113d1565b611053565b905080838252602082019050602084028301858111156114335761143261109a565b5b835b8181101561145c578061144888826111be565b845260208401935050602081019050611435565b5050509392505050565b600082601f83011261147b5761147a610fdd565b5b813561148b8482602086016113fd565b91505092915050565b600080fd5b600067ffffffffffffffff8211156114b4576114b3610ff3565b5b6114bd82610fe2565b9050602081019050919050565b82818337600083830152505050565b60006114ec6114e784611499565b611053565b90508281526020810184848401111561150857611507611494565b5b6115138482856114ca565b509392505050565b600082601f8301126115305761152f610fdd565b5b81356115408482602086016114d9565b91505092915050565b6000806000806080858703121561156357611562610fd3565b5b600085013567ffffffffffffffff81111561158157611580610fd8565b5b61158d878288016113a3565b945050602085013567ffffffffffffffff8111156115ae576115ad610fd8565b5b6115ba87828801611466565b935050604085013567ffffffffffffffff8111156115db576115da610fd8565b5b6115e787828801611466565b925050606085013567ffffffffffffffff81111561160857611607610fd8565b5b6116148782880161151b565b91505092959194509250565b600081519050919050565b600082825260208201905092915050565b6000819050602082019050919050565b61165581610f8d565b82525050565b6000611667838361164c565b60208301905092915050565b6000602082019050919050565b600061168b82611620565b611695818561162b565b93506116a08361163c565b8060005b838110156116d15781516116b8888261165b565b97506116c383611673565b9250506001810190506116a4565b5085935050505092915050565b6116e781611162565b82525050565b6116f68161119d565b82525050565b611705816111d3565b82525050565b600060a08301600083015184820360008601526117288282611680565b915050602083015184820360208601526117428282611680565b915050604083015161175760408601826116de565b50606083015161176a60608601826116ed565b50608083015161177d60808601826116fc565b508091505092915050565b600060208201905081810360008301526117a2818461170b565b905092915050565b7f4e487b7100000000000000000000000000000000000000000000000000000000600052603260045260246000fd5b6000819050919050565b60006117fe6117f96117f484610f6d565b6117d9565b610f6d565b9050919050565b6000611810826117e3565b9050919050565b600061182282611805565b9050919050565b61183281611817565b82525050565b600081519050919050565b600082825260208201905092915050565b6000819050602082019050919050565b600061186f82611805565b9050919050565b61187f81611864565b82525050565b60006118918383611876565b60208301905092915050565b6000602082019050919050565b60006118b582611838565b6118bf8185611843565b93506118ca83611854565b8060005b838110156118fb5781516118e28882611885565b97506118ed8361189d565b9250506001810190506118ce565b5085935050505092915050565b600081519050919050565b600082825260208201905092915050565b6000819050602082019050919050565b600061194083836116ed565b60208301905092915050565b6000602082019050919050565b600061196482611908565b61196e8185611913565b935061197983611924565b8060005b838110156119aa5781516119918882611934565b975061199c8361194c565b92505060018101905061197d565b5085935050505092915050565b600081519050919050565b600082825260208201905092915050565b60005b838110156119f15780820151818401526020810190506119d6565b60008484015250505050565b6000611a08826119b7565b611a1281856119c2565b9350611a228185602086016119d3565b611a2b81610fe2565b840191505092915050565b6000608082019050611a4b6000830187611829565b8181036020830152611a5d81866118aa565b90508181036040830152611a718185611959565b90508181036060830152611a8581846119fd565b905095945050505050565b600080fd5b600080fd5b600081519050611aa98161109f565b92915050565b6000611ac2611abd8461106e565b611053565b90508083825260208201905060208402830185811115611ae557611ae461109a565b5b835b81811015611b0e5780611afa8882611a9a565b845260208401935050602081019050611ae7565b5050509392505050565b600082601f830112611b2d57611b2c610fdd565b5b8151611b3d848260208601611aaf565b91505092915050565b600081519050611b5581611171565b92915050565b600081519050611b6a816111a7565b92915050565b600081519050611b7f816111df565b92915050565b600060a08284031215611b9b57611b9a611a90565b5b611ba560a0611053565b9050600082015167ffffffffffffffff811115611bc557611bc4611a95565b5b611bd184828501611b18565b600083015250602082015167ffffffffffffffff811115611bf557611bf4611a95565b5b611c0184828501611b18565b6020830152506040611c1584828501611b46565b6040830152506060611c2984828501611b5b565b6060830152506080611c3d84828501611b70565b60808301525092915050565b600060208284031215611c5f57611c5e610fd3565b5b600082015167ffffffffffffffff811115611c7d57611c7c610fd8565b5b611c8984828501611b85565b91505092915050565b600060208284031215611ca857611ca7610fd3565b5b6000611cb684828501611b5b565b91505092915050565b611cc88161119d565b82525050565b6000604082019050611ce36000830185610f9f565b611cf06020830184611cbf565b9392505050565b600060208284031215611d0d57611d0c610fd3565b5b6000611d1b84828501611b70565b91505092915050565b611d2d81610f6d565b82525050565b60e082016000820151611d49600085018261164c565b506020820151611d5c602085018261164c565b506040820151611d6f60408501826116de565b506060820151611d82606085018261164c565b506080820151611d9560808501826116ed565b5060a0820151611da860a08501826116ed565b5060c0820151611dbb60c0850182611d24565b50505050565b600060e082019050611dd66000830184611d33565b92915050565b600081519050919050565b600082825260208201905092915050565b6000819050602082019050919050565b608082016000820151611e1e600085018261164c565b506020820151611e31602085018261164c565b506040820151611e4460408501826116fc565b506060820151611e57606085018261164c565b50505050565b6000611e698383611e08565b60808301905092915050565b6000602082019050919050565b6000611e8d82611ddc565b611e978185611de7565b9350611ea283611df8565b8060005b83811015611ed3578151611eba8882611e5d565b9750611ec583611e75565b925050600181019050611ea6565b5085935050505092915050565b6000604082019050611ef56000830185611cbf565b8181036020830152611f078184611e82565b90509392505050565b6000611f23611f1e846113d1565b611053565b90508083825260208201905060208402830185811115611f4657611f4561109a565b5b835b81811015611f6f5780611f5b8882611b5b565b845260208401935050602081019050611f48565b5050509392505050565b600082601f830112611f8e57611f8d610fdd565b5b8151611f9e848260208601611f10565b91505092915050565b600060208284031215611fbd57611fbc610fd3565b5b600082015167ffffffffffffffff811115611fdb57611fda610fd8565b5b611fe784828501611f79565b91505092915050565b600060a0820190506120056000830188611cbf565b6120126020830187611cbf565b81810360408301526120248186611e82565b90506120336060830185610f9f565b6120406080830184611cbf565b9695505050505050565b600081905092915050565b6000612060826119b7565b61206a818561204a565b935061207a8185602086016119d3565b80840191505092915050565b60006120928284612055565b915081905092915050565b600082825260208201905092915050565b7f5341000000000000000000000000000000000000000000000000000000000000600082015250565b60006120e460028361209d565b91506120ef826120ae565b602082019050919050565b60006020820190508181036000830152612113816120d7565b905091905056fea2646970667358221220fc02e3876f574370fdf2c09d219893b06f87d891a19ddb9a33474c3e06f3433064736f6c63430008120033","opcodes":"PUSH1 0x80 PUSH1 0x40 MSTORE PUSH20 0xCF77A3BA9A5CA399B7C97C74D54E5B1BEB874E43 PUSH1 0x1 PUSH1 0x0 PUSH2 0x100 EXP DUP2 SLOAD DUP2 PUSH20 0xFFFFFFFFFFFFFFFFFFFFFFFFFFFFFFFFFFFFFFFF MUL NOT AND SWAP1 DUP4 PUSH20 0xFFFFFFFFFFFFFFFFFFFFFFFFFFFFFFFFFFFFFFFF AND MUL OR SWAP1 SSTORE POP PUSH20 0x420DD381B31AEF6683DB6B902084CB0FFECE40DA PUSH1 0x2 PUSH1 0x0 PUSH2 0x100 EXP DUP2 SLOAD DUP2 PUSH20 0xFFFFFFFFFFFFFFFFFFFFFFFFFFFFFFFFFFFFFFFF MUL NOT AND SWAP1 DUP4 PUSH20 0xFFFFFFFFFFFFFFFFFFFFFFFFFFFFFFFFFFFFFFFF AND MUL OR SWAP1 SSTORE POP PUSH20 0x3D4E44EB1374240CE5F1B871AB261CD16335B76A PUSH1 0x3 PUSH1 0x0 PUSH2 0x100 EXP DUP2 SLOAD DUP2 PUSH20 0xFFFFFFFFFFFFFFFFFFFFFFFFFFFFFFFFFFFFFFFF MUL NOT AND SWAP1 DUP4 PUSH20 0xFFFFFFFFFFFFFFFFFFFFFFFFFFFFFFFFFFFFFFFF AND MUL OR SWAP1 SSTORE POP CALLVALUE DUP1 ISZERO PUSH2 0x10F JUMPI PUSH1 0x0 DUP1 REVERT JUMPDEST POP CALLER PUSH1 0x0 DUP1 PUSH2 0x100 EXP DUP2 SLOAD DUP2 PUSH20 0xFFFFFFFFFFFFFFFFFFFFFFFFFFFFFFFFFFFFFFFF MUL NOT AND SWAP1 DUP4 PUSH20 0xFFFFFFFFFFFFFFFFFFFFFFFFFFFFFFFFFFFFFFFF AND MUL OR SWAP1 SSTORE POP PUSH2 0x2150 DUP1 PUSH2 0x15F PUSH1 0x0 CODECOPY PUSH1 0x0 RETURN INVALID PUSH1 0x80 PUSH1 0x40 MSTORE CALLVALUE DUP1 ISZERO PUSH2 0x10 JUMPI PUSH1 0x0 DUP1 REVERT JUMPDEST POP PUSH1 0x4 CALLDATASIZE LT PUSH2 0x62 JUMPI PUSH1 0x0 CALLDATALOAD PUSH1 0xE0 SHR DUP1 PUSH4 0x5880C7EB EQ PUSH2 0x67 JUMPI DUP1 PUSH4 0x7C84B9B4 EQ PUSH2 0x85 JUMPI DUP1 PUSH4 0x8DA5CB5B EQ PUSH2 0xA1 JUMPI DUP1 PUSH4 0xC45A0155 EQ PUSH2 0xBF JUMPI DUP1 PUSH4 0xF04F2707 EQ PUSH2 0xDD JUMPI DUP1 PUSH4 0xF887EA40 EQ PUSH2 0xF9 JUMPI JUMPDEST PUSH1 0x0 DUP1 REVERT JUMPDEST PUSH2 0x6F PUSH2 0x117 JUMP JUMPDEST PUSH1 0x40 MLOAD PUSH2 0x7C SWAP2 SWAP1 PUSH2 0xFAE JUMP JUMPDEST PUSH1 0x40 MLOAD DUP1 SWAP2 SUB SWAP1 RETURN JUMPDEST PUSH2 0x9F PUSH1 0x4 DUP1 CALLDATASIZE SUB DUP2 ADD SWAP1 PUSH2 0x9A SWAP2 SWAP1 PUSH2 0x120B JUMP JUMPDEST PUSH2 0x13D JUMP JUMPDEST STOP JUMPDEST PUSH2 0xA9 PUSH2 0x39D JUMP JUMPDEST PUSH1 0x40 MLOAD PUSH2 0xB6 SWAP2 SWAP1 PUSH2 0xFAE JUMP JUMPDEST PUSH1 0x40 MLOAD DUP1 SWAP2 SUB SWAP1 RETURN JUMPDEST PUSH2 0xC7 PUSH2 0x3C1 JUMP JUMPDEST PUSH1 0x40 MLOAD PUSH2 0xD4 SWAP2 SWAP1 PUSH2 0xFAE JUMP JUMPDEST PUSH1 0x40 MLOAD DUP1 SWAP2 SUB SWAP1 RETURN JUMPDEST PUSH2 0xF7 PUSH1 0x4 DUP1 CALLDATASIZE SUB DUP2 ADD SWAP1 PUSH2 0xF2 SWAP2 SWAP1 PUSH2 0x1549 JUMP JUMPDEST PUSH2 0x3E7 JUMP JUMPDEST STOP JUMPDEST PUSH2 0x101 PUSH2 0x943 JUMP JUMPDEST PUSH1 0x40 MLOAD PUSH2 0x10E SWAP2 SWAP1 PUSH2 0xFAE JUMP JUMPDEST PUSH1 0x40 MLOAD DUP1 SWAP2 SUB SWAP1 RETURN JUMPDEST PUSH1 0x3 PUSH1 0x0 SWAP1 SLOAD SWAP1 PUSH2 0x100 EXP SWAP1 DIV PUSH20 0xFFFFFFFFFFFFFFFFFFFFFFFFFFFFFFFFFFFFFFFF AND DUP2 JUMP JUMPDEST PUSH1 0x0 PUSH1 0x40 MLOAD DUP1 PUSH1 0xA0 ADD PUSH1 0x40 MSTORE DUP1 DUP9 DUP2 MSTORE PUSH1 0x20 ADD DUP8 DUP2 MSTORE PUSH1 0x20 ADD DUP7 PUSH3 0xFFFFFF AND DUP2 MSTORE PUSH1 0x20 ADD DUP6 DUP2 MSTORE PUSH1 0x20 ADD DUP4 ISZERO ISZERO DUP2 MSTORE POP PUSH1 0x40 MLOAD PUSH1 0x20 ADD PUSH2 0x17D SWAP2 SWAP1 PUSH2 0x1788 JUMP JUMPDEST PUSH1 0x40 MLOAD PUSH1 0x20 DUP2 DUP4 SUB SUB DUP2 MSTORE SWAP1 PUSH1 0x40 MSTORE SWAP1 POP PUSH1 0x0 DUP1 SLOAD SWAP1 PUSH2 0x100 EXP SWAP1 DIV PUSH20 0xFFFFFFFFFFFFFFFFFFFFFFFFFFFFFFFFFFFFFFFF AND PUSH20 0xFFFFFFFFFFFFFFFFFFFFFFFFFFFFFFFFFFFFFFFF AND CALLER PUSH20 0xFFFFFFFFFFFFFFFFFFFFFFFFFFFFFFFFFFFFFFFF AND EQ PUSH2 0x1E6 JUMPI PUSH1 0x0 DUP1 REVERT JUMPDEST PUSH1 0x0 PUSH1 0x1 PUSH8 0xFFFFFFFFFFFFFFFF DUP2 GT ISZERO PUSH2 0x203 JUMPI PUSH2 0x202 PUSH2 0xFF3 JUMP JUMPDEST JUMPDEST PUSH1 0x40 MLOAD SWAP1 DUP1 DUP3 MSTORE DUP1 PUSH1 0x20 MUL PUSH1 0x20 ADD DUP3 ADD PUSH1 0x40 MSTORE DUP1 ISZERO PUSH2 0x231 JUMPI DUP2 PUSH1 0x20 ADD PUSH1 0x20 DUP3 MUL DUP1 CALLDATASIZE DUP4 CALLDATACOPY DUP1 DUP3 ADD SWAP2 POP POP SWAP1 POP JUMPDEST POP SWAP1 POP DUP7 PUSH1 0x0 DUP2 MLOAD DUP2 LT PUSH2 0x248 JUMPI PUSH2 0x247 PUSH2 0x17AA JUMP JUMPDEST JUMPDEST PUSH1 0x20 MUL PUSH1 0x20 ADD ADD MLOAD DUP2 PUSH1 0x0 DUP2 MLOAD DUP2 LT PUSH2 0x264 JUMPI PUSH2 0x263 PUSH2 0x17AA JUMP JUMPDEST JUMPDEST PUSH1 0x20 MUL PUSH1 0x20 ADD ADD SWAP1 PUSH20 0xFFFFFFFFFFFFFFFFFFFFFFFFFFFFFFFFFFFFFFFF AND SWAP1 DUP2 PUSH20 0xFFFFFFFFFFFFFFFFFFFFFFFFFFFFFFFFFFFFFFFF AND DUP2 MSTORE POP POP PUSH1 0x0 PUSH1 0x1 PUSH8 0xFFFFFFFFFFFFFFFF DUP2 GT ISZERO PUSH2 0x2BB JUMPI PUSH2 0x2BA PUSH2 0xFF3 JUMP JUMPDEST JUMPDEST PUSH1 0x40 MLOAD SWAP1 DUP1 DUP3 MSTORE DUP1 PUSH1 0x20 MUL PUSH1 0x20 ADD DUP3 ADD PUSH1 0x40 MSTORE DUP1 ISZERO PUSH2 0x2E9 JUMPI DUP2 PUSH1 0x20 ADD PUSH1 0x20 DUP3 MUL DUP1 CALLDATASIZE DUP4 CALLDATACOPY DUP1 DUP3 ADD SWAP2 POP POP SWAP1 POP JUMPDEST POP SWAP1 POP DUP5 DUP2 PUSH1 0x0 DUP2 MLOAD DUP2 LT PUSH2 0x301 JUMPI PUSH2 0x300 PUSH2 0x17AA JUMP JUMPDEST JUMPDEST PUSH1 0x20 MUL PUSH1 0x20 ADD ADD DUP2 DUP2 MSTORE POP POP PUSH20 0xBA12222222228D8BA445958A75A0704D566BF2C8 PUSH20 0xFFFFFFFFFFFFFFFFFFFFFFFFFFFFFFFFFFFFFFFF AND PUSH4 0x5C38449E ADDRESS DUP5 DUP5 DUP8 PUSH1 0x40 MLOAD DUP6 PUSH4 0xFFFFFFFF AND PUSH1 0xE0 SHL DUP2 MSTORE PUSH1 0x4 ADD PUSH2 0x360 SWAP5 SWAP4 SWAP3 SWAP2 SWAP1 PUSH2 0x1A36 JUMP JUMPDEST PUSH1 0x0 PUSH1 0x40 MLOAD DUP1 DUP4 SUB DUP2 PUSH1 0x0 DUP8 DUP1 EXTCODESIZE ISZERO DUP1 ISZERO PUSH2 0x37A JUMPI PUSH1 0x0 DUP1 REVERT JUMPDEST POP GAS CALL ISZERO DUP1 ISZERO PUSH2 0x38E JUMPI RETURNDATASIZE PUSH1 0x0 DUP1 RETURNDATACOPY RETURNDATASIZE PUSH1 0x0 REVERT JUMPDEST POP POP POP POP POP POP POP POP POP POP POP POP POP JUMP JUMPDEST PUSH1 0x0 DUP1 SLOAD SWAP1 PUSH2 0x100 EXP SWAP1 DIV PUSH20 0xFFFFFFFFFFFFFFFFFFFFFFFFFFFFFFFFFFFFFFFF AND DUP2 JUMP JUMPDEST PUSH1 0x2 PUSH1 0x0 SWAP1 SLOAD SWAP1 PUSH2 0x100 EXP SWAP1 DIV PUSH20 0xFFFFFFFFFFFFFFFFFFFFFFFFFFFFFFFFFFFFFFFF AND DUP2 JUMP JUMPDEST PUSH20 0xBA12222222228D8BA445958A75A0704D566BF2C8 PUSH20 0xFFFFFFFFFFFFFFFFFFFFFFFFFFFFFFFFFFFFFFFF AND CALLER PUSH20 0xFFFFFFFFFFFFFFFFFFFFFFFFFFFFFFFFFFFFFFFF AND EQ PUSH2 0x433 JUMPI PUSH1 0x0 DUP1 REVERT JUMPDEST PUSH1 0x0 DUP2 DUP1 PUSH1 0x20 ADD SWAP1 MLOAD DUP2 ADD SWAP1 PUSH2 0x449 SWAP2 SWAP1 PUSH2 0x1C49 JUMP JUMPDEST SWAP1 POP PUSH1 0x0 DUP5 PUSH1 0x0 DUP2 MLOAD DUP2 LT PUSH2 0x461 JUMPI PUSH2 0x460 PUSH2 0x17AA JUMP JUMPDEST JUMPDEST PUSH1 0x20 MUL PUSH1 0x20 ADD ADD MLOAD SWAP1 POP PUSH1 0x1 ISZERO ISZERO DUP3 PUSH1 0x80 ADD MLOAD ISZERO ISZERO SUB PUSH2 0x5D9 JUMPI PUSH2 0x4EE DUP3 PUSH1 0x0 ADD MLOAD PUSH1 0x0 DUP2 MLOAD DUP2 LT PUSH2 0x496 JUMPI PUSH2 0x495 PUSH2 0x17AA JUMP JUMPDEST JUMPDEST PUSH1 0x20 MUL PUSH1 0x20 ADD ADD MLOAD DUP4 PUSH1 0x20 ADD MLOAD PUSH1 0x0 DUP2 MLOAD DUP2 LT PUSH2 0x4B6 JUMPI PUSH2 0x4B5 PUSH2 0x17AA JUMP JUMPDEST JUMPDEST PUSH1 0x20 MUL PUSH1 0x20 ADD ADD MLOAD DUP4 DUP6 PUSH1 0x20 ADD MLOAD PUSH1 0x1 DUP2 MLOAD DUP2 LT PUSH2 0x4D7 JUMPI PUSH2 0x4D6 PUSH2 0x17AA JUMP JUMPDEST JUMPDEST PUSH1 0x20 MUL PUSH1 0x20 ADD ADD MLOAD DUP7 PUSH1 0x60 ADD MLOAD DUP8 PUSH1 0x40 ADD MLOAD PUSH2 0x969 JUMP JUMPDEST PUSH2 0x5D3 DUP3 PUSH1 0x20 ADD MLOAD PUSH1 0x1 DUP2 MLOAD DUP2 LT PUSH2 0x509 JUMPI PUSH2 0x508 PUSH2 0x17AA JUMP JUMPDEST JUMPDEST PUSH1 0x20 MUL PUSH1 0x20 ADD ADD MLOAD DUP4 PUSH1 0x20 ADD MLOAD PUSH1 0x0 DUP2 MLOAD DUP2 LT PUSH2 0x529 JUMPI PUSH2 0x528 PUSH2 0x17AA JUMP JUMPDEST JUMPDEST PUSH1 0x20 MUL PUSH1 0x20 ADD ADD MLOAD DUP5 PUSH1 0x20 ADD MLOAD PUSH1 0x1 DUP2 MLOAD DUP2 LT PUSH2 0x549 JUMPI PUSH2 0x548 PUSH2 0x17AA JUMP JUMPDEST JUMPDEST PUSH1 0x20 MUL PUSH1 0x20 ADD ADD MLOAD PUSH20 0xFFFFFFFFFFFFFFFFFFFFFFFFFFFFFFFFFFFFFFFF AND PUSH4 0x70A08231 ADDRESS PUSH1 0x40 MLOAD DUP3 PUSH4 0xFFFFFFFF AND PUSH1 0xE0 SHL DUP2 MSTORE PUSH1 0x4 ADD PUSH2 0x589 SWAP2 SWAP1 PUSH2 0xFAE JUMP JUMPDEST PUSH1 0x20 PUSH1 0x40 MLOAD DUP1 DUP4 SUB DUP2 DUP7 GAS STATICCALL ISZERO DUP1 ISZERO PUSH2 0x5A6 JUMPI RETURNDATASIZE PUSH1 0x0 DUP1 RETURNDATACOPY RETURNDATASIZE PUSH1 0x0 REVERT JUMPDEST POP POP POP POP PUSH1 0x40 MLOAD RETURNDATASIZE PUSH1 0x1F NOT PUSH1 0x1F DUP3 ADD AND DUP3 ADD DUP1 PUSH1 0x40 MSTORE POP DUP2 ADD SWAP1 PUSH2 0x5CA SWAP2 SWAP1 PUSH2 0x1C92 JUMP JUMPDEST DUP5 PUSH1 0x0 ADDRESS PUSH2 0xA8F JUMP JUMPDEST POP PUSH2 0x733 JUMP JUMPDEST PUSH2 0x62A DUP3 PUSH1 0x20 ADD MLOAD PUSH1 0x0 DUP2 MLOAD DUP2 LT PUSH2 0x5F4 JUMPI PUSH2 0x5F3 PUSH2 0x17AA JUMP JUMPDEST JUMPDEST PUSH1 0x20 MUL PUSH1 0x20 ADD ADD MLOAD DUP4 PUSH1 0x20 ADD MLOAD PUSH1 0x1 DUP2 MLOAD DUP2 LT PUSH2 0x614 JUMPI PUSH2 0x613 PUSH2 0x17AA JUMP JUMPDEST JUMPDEST PUSH1 0x20 MUL PUSH1 0x20 ADD ADD MLOAD DUP4 DUP6 PUSH1 0x60 ADD MLOAD PUSH1 0x0 ADDRESS PUSH2 0xA8F JUMP JUMPDEST POP PUSH2 0x732 DUP3 PUSH1 0x0 ADD MLOAD PUSH1 0x1 DUP2 MLOAD DUP2 LT PUSH2 0x646 JUMPI PUSH2 0x645 PUSH2 0x17AA JUMP JUMPDEST JUMPDEST PUSH1 0x20 MUL PUSH1 0x20 ADD ADD MLOAD DUP4 PUSH1 0x20 ADD MLOAD PUSH1 0x1 DUP2 MLOAD DUP2 LT PUSH2 0x666 JUMPI PUSH2 0x665 PUSH2 0x17AA JUMP JUMPDEST JUMPDEST PUSH1 0x20 MUL PUSH1 0x20 ADD ADD MLOAD DUP5 PUSH1 0x20 ADD MLOAD PUSH1 0x1 DUP2 MLOAD DUP2 LT PUSH2 0x686 JUMPI PUSH2 0x685 PUSH2 0x17AA JUMP JUMPDEST JUMPDEST PUSH1 0x20 MUL PUSH1 0x20 ADD ADD MLOAD PUSH20 0xFFFFFFFFFFFFFFFFFFFFFFFFFFFFFFFFFFFFFFFF AND PUSH4 0x70A08231 ADDRESS PUSH1 0x40 MLOAD DUP3 PUSH4 0xFFFFFFFF AND PUSH1 0xE0 SHL DUP2 MSTORE PUSH1 0x4 ADD PUSH2 0x6C6 SWAP2 SWAP1 PUSH2 0xFAE JUMP JUMPDEST PUSH1 0x20 PUSH1 0x40 MLOAD DUP1 DUP4 SUB DUP2 DUP7 GAS STATICCALL ISZERO DUP1 ISZERO PUSH2 0x6E3 JUMPI RETURNDATASIZE PUSH1 0x0 DUP1 RETURNDATACOPY RETURNDATASIZE PUSH1 0x0 REVERT JUMPDEST POP POP POP POP PUSH1 0x40 MLOAD RETURNDATASIZE PUSH1 0x1F NOT PUSH1 0x1F DUP3 ADD AND DUP3 ADD DUP1 PUSH1 0x40 MSTORE POP DUP2 ADD SWAP1 PUSH2 0x707 SWAP2 SWAP1 PUSH2 0x1C92 JUMP JUMPDEST DUP6 PUSH1 0x20 ADD MLOAD PUSH1 0x0 DUP2 MLOAD DUP2 LT PUSH2 0x71F JUMPI PUSH2 0x71E PUSH2 0x17AA JUMP JUMPDEST JUMPDEST PUSH1 0x20 MUL PUSH1 0x20 ADD ADD MLOAD DUP6 DUP8 PUSH1 0x40 ADD MLOAD PUSH2 0x969 JUMP JUMPDEST JUMPDEST DUP2 PUSH1 0x20 ADD MLOAD PUSH1 0x0 DUP2 MLOAD DUP2 LT PUSH2 0x74B JUMPI PUSH2 0x74A PUSH2 0x17AA JUMP JUMPDEST JUMPDEST PUSH1 0x20 MUL PUSH1 0x20 ADD ADD MLOAD PUSH20 0xFFFFFFFFFFFFFFFFFFFFFFFFFFFFFFFFFFFFFFFF AND PUSH4 0xA9059CBB PUSH20 0xBA12222222228D8BA445958A75A0704D566BF2C8 DUP4 PUSH1 0x40 MLOAD DUP4 PUSH4 0xFFFFFFFF AND PUSH1 0xE0 SHL DUP2 MSTORE PUSH1 0x4 ADD PUSH2 0x7A1 SWAP3 SWAP2 SWAP1 PUSH2 0x1CCE JUMP JUMPDEST PUSH1 0x20 PUSH1 0x40 MLOAD DUP1 DUP4 SUB DUP2 PUSH1 0x0 DUP8 GAS CALL ISZERO DUP1 ISZERO PUSH2 0x7C0 JUMPI RETURNDATASIZE PUSH1 0x0 DUP1 RETURNDATACOPY RETURNDATASIZE PUSH1 0x0 REVERT JUMPDEST POP POP POP POP PUSH1 0x40 MLOAD RETURNDATASIZE PUSH1 0x1F NOT PUSH1 0x1F DUP3 ADD AND DUP3 ADD DUP1 PUSH1 0x40 MSTORE POP DUP2 ADD SWAP1 PUSH2 0x7E4 SWAP2 SWAP1 PUSH2 0x1CF7 JUMP JUMPDEST POP DUP2 PUSH1 0x20 ADD MLOAD PUSH1 0x0 DUP2 MLOAD DUP2 LT PUSH2 0x7FD JUMPI PUSH2 0x7FC PUSH2 0x17AA JUMP JUMPDEST JUMPDEST PUSH1 0x20 MUL PUSH1 0x20 ADD ADD MLOAD PUSH20 0xFFFFFFFFFFFFFFFFFFFFFFFFFFFFFFFFFFFFFFFF AND PUSH4 0xA9059CBB PUSH1 0x0 DUP1 SLOAD SWAP1 PUSH2 0x100 EXP SWAP1 DIV PUSH20 0xFFFFFFFFFFFFFFFFFFFFFFFFFFFFFFFFFFFFFFFF AND DUP5 PUSH1 0x20 ADD MLOAD PUSH1 0x0 DUP2 MLOAD DUP2 LT PUSH2 0x859 JUMPI PUSH2 0x858 PUSH2 0x17AA JUMP JUMPDEST JUMPDEST PUSH1 0x20 MUL PUSH1 0x20 ADD ADD MLOAD PUSH20 0xFFFFFFFFFFFFFFFFFFFFFFFFFFFFFFFFFFFFFFFF AND PUSH4 0x70A08231 ADDRESS PUSH1 0x40 MLOAD DUP3 PUSH4 0xFFFFFFFF AND PUSH1 0xE0 SHL DUP2 MSTORE PUSH1 0x4 ADD PUSH2 0x899 SWAP2 SWAP1 PUSH2 0xFAE JUMP JUMPDEST PUSH1 0x20 PUSH1 0x40 MLOAD DUP1 DUP4 SUB DUP2 DUP7 GAS STATICCALL ISZERO DUP1 ISZERO PUSH2 0x8B6 JUMPI RETURNDATASIZE PUSH1 0x0 DUP1 RETURNDATACOPY RETURNDATASIZE PUSH1 0x0 REVERT JUMPDEST POP POP POP POP PUSH1 0x40 MLOAD RETURNDATASIZE PUSH1 0x1F NOT PUSH1 0x1F DUP3 ADD AND DUP3 ADD DUP1 PUSH1 0x40 MSTORE POP DUP2 ADD SWAP1 PUSH2 0x8DA SWAP2 SWAP1 PUSH2 0x1C92 JUMP JUMPDEST PUSH1 0x40 MLOAD DUP4 PUSH4 0xFFFFFFFF AND PUSH1 0xE0 SHL DUP2 MSTORE PUSH1 0x4 ADD PUSH2 0x8F7 SWAP3 SWAP2 SWAP1 PUSH2 0x1CCE JUMP JUMPDEST PUSH1 0x20 PUSH1 0x40 MLOAD DUP1 DUP4 SUB DUP2 PUSH1 0x0 DUP8 GAS CALL ISZERO DUP1 ISZERO PUSH2 0x916 JUMPI RETURNDATASIZE PUSH1 0x0 DUP1 RETURNDATACOPY RETURNDATASIZE PUSH1 0x0 REVERT JUMPDEST POP POP POP POP PUSH1 0x40 MLOAD RETURNDATASIZE PUSH1 0x1F NOT PUSH1 0x1F DUP3 ADD AND DUP3 ADD DUP1 PUSH1 0x40 MSTORE POP DUP2 ADD SWAP1 PUSH2 0x93A SWAP2 SWAP1 PUSH2 0x1CF7 JUMP JUMPDEST POP POP POP POP POP POP POP JUMP JUMPDEST PUSH1 0x1 PUSH1 0x0 SWAP1 SLOAD SWAP1 PUSH2 0x100 EXP SWAP1 DIV PUSH20 0xFFFFFFFFFFFFFFFFFFFFFFFFFFFFFFFFFFFFFFFF AND DUP2 JUMP JUMPDEST PUSH2 0x974 DUP6 DUP8 DUP7 PUSH2 0xDAC JUMP JUMPDEST PUSH1 0x0 PUSH1 0x40 MLOAD DUP1 PUSH1 0xE0 ADD PUSH1 0x40 MSTORE DUP1 DUP8 PUSH20 0xFFFFFFFFFFFFFFFFFFFFFFFFFFFFFFFFFFFFFFFF AND DUP2 MSTORE PUSH1 0x20 ADD DUP6 PUSH20 0xFFFFFFFFFFFFFFFFFFFFFFFFFFFFFFFFFFFFFFFF AND DUP2 MSTORE PUSH1 0x20 ADD DUP4 PUSH3 0xFFFFFF AND DUP2 MSTORE PUSH1 0x20 ADD ADDRESS PUSH20 0xFFFFFFFFFFFFFFFFFFFFFFFFFFFFFFFFFFFFFFFF AND DUP2 MSTORE PUSH1 0x20 ADD DUP7 DUP2 MSTORE PUSH1 0x20 ADD DUP5 DUP2 MSTORE PUSH1 0x20 ADD PUSH1 0x0 PUSH20 0xFFFFFFFFFFFFFFFFFFFFFFFFFFFFFFFFFFFFFFFF AND DUP2 MSTORE POP SWAP1 POP DUP7 PUSH20 0xFFFFFFFFFFFFFFFFFFFFFFFFFFFFFFFFFFFFFFFF AND PUSH4 0x4E45AAF DUP3 PUSH1 0x40 MLOAD DUP3 PUSH4 0xFFFFFFFF AND PUSH1 0xE0 SHL DUP2 MSTORE PUSH1 0x4 ADD PUSH2 0xA42 SWAP2 SWAP1 PUSH2 0x1DC1 JUMP JUMPDEST PUSH1 0x20 PUSH1 0x40 MLOAD DUP1 DUP4 SUB DUP2 PUSH1 0x0 DUP8 GAS CALL ISZERO DUP1 ISZERO PUSH2 0xA61 JUMPI RETURNDATASIZE PUSH1 0x0 DUP1 RETURNDATACOPY RETURNDATASIZE PUSH1 0x0 REVERT JUMPDEST POP POP POP POP PUSH1 0x40 MLOAD RETURNDATASIZE PUSH1 0x1F NOT PUSH1 0x1F DUP3 ADD AND DUP3 ADD DUP1 PUSH1 0x40 MSTORE POP DUP2 ADD SWAP1 PUSH2 0xA85 SWAP2 SWAP1 PUSH2 0x1C92 JUMP JUMPDEST POP POP POP POP POP POP POP POP JUMP JUMPDEST PUSH1 0x60 DUP7 PUSH20 0xFFFFFFFFFFFFFFFFFFFFFFFFFFFFFFFFFFFFFFFF AND PUSH4 0x95EA7B3 PUSH1 0x1 PUSH1 0x0 SWAP1 SLOAD SWAP1 PUSH2 0x100 EXP SWAP1 DIV PUSH20 0xFFFFFFFFFFFFFFFFFFFFFFFFFFFFFFFFFFFFFFFF AND DUP8 PUSH1 0x40 MLOAD DUP4 PUSH4 0xFFFFFFFF AND PUSH1 0xE0 SHL DUP2 MSTORE PUSH1 0x4 ADD PUSH2 0xAEE SWAP3 SWAP2 SWAP1 PUSH2 0x1CCE JUMP JUMPDEST PUSH1 0x20 PUSH1 0x40 MLOAD DUP1 DUP4 SUB DUP2 PUSH1 0x0 DUP8 GAS CALL ISZERO DUP1 ISZERO PUSH2 0xB0D JUMPI RETURNDATASIZE PUSH1 0x0 DUP1 RETURNDATACOPY RETURNDATASIZE PUSH1 0x0 REVERT JUMPDEST POP POP POP POP PUSH1 0x40 MLOAD RETURNDATASIZE PUSH1 0x1F NOT PUSH1 0x1F DUP3 ADD AND DUP3 ADD DUP1 PUSH1 0x40 MSTORE POP DUP2 ADD SWAP1 PUSH2 0xB31 SWAP2 SWAP1 PUSH2 0x1CF7 JUMP JUMPDEST POP PUSH1 0x0 PUSH1 0x1 PUSH8 0xFFFFFFFFFFFFFFFF DUP2 GT ISZERO PUSH2 0xB4F JUMPI PUSH2 0xB4E PUSH2 0xFF3 JUMP JUMPDEST JUMPDEST PUSH1 0x40 MLOAD SWAP1 DUP1 DUP3 MSTORE DUP1 PUSH1 0x20 MUL PUSH1 0x20 ADD DUP3 ADD PUSH1 0x40 MSTORE DUP1 ISZERO PUSH2 0xB88 JUMPI DUP2 PUSH1 0x20 ADD JUMPDEST PUSH2 0xB75 PUSH2 0xF01 JUMP JUMPDEST DUP2 MSTORE PUSH1 0x20 ADD SWAP1 PUSH1 0x1 SWAP1 SUB SWAP1 DUP2 PUSH2 0xB6D JUMPI SWAP1 POP JUMPDEST POP SWAP1 POP PUSH1 0x40 MLOAD DUP1 PUSH1 0x80 ADD PUSH1 0x40 MSTORE DUP1 DUP10 PUSH20 0xFFFFFFFFFFFFFFFFFFFFFFFFFFFFFFFFFFFFFFFF AND DUP2 MSTORE PUSH1 0x20 ADD DUP9 PUSH20 0xFFFFFFFFFFFFFFFFFFFFFFFFFFFFFFFFFFFFFFFF AND DUP2 MSTORE PUSH1 0x20 ADD DUP6 ISZERO ISZERO DUP2 MSTORE PUSH1 0x20 ADD PUSH1 0x2 PUSH1 0x0 SWAP1 SLOAD SWAP1 PUSH2 0x100 EXP SWAP1 DIV PUSH20 0xFFFFFFFFFFFFFFFFFFFFFFFFFFFFFFFFFFFFFFFF AND PUSH20 0xFFFFFFFFFFFFFFFFFFFFFFFFFFFFFFFFFFFFFFFF AND DUP2 MSTORE POP DUP2 PUSH1 0x0 DUP2 MLOAD DUP2 LT PUSH2 0xC26 JUMPI PUSH2 0xC25 PUSH2 0x17AA JUMP JUMPDEST JUMPDEST PUSH1 0x20 MUL PUSH1 0x20 ADD ADD DUP2 SWAP1 MSTORE POP PUSH1 0x0 PUSH1 0x1 PUSH1 0x0 SWAP1 SLOAD SWAP1 PUSH2 0x100 EXP SWAP1 DIV PUSH20 0xFFFFFFFFFFFFFFFFFFFFFFFFFFFFFFFFFFFFFFFF AND PUSH20 0xFFFFFFFFFFFFFFFFFFFFFFFFFFFFFFFFFFFFFFFF AND PUSH4 0x5509A1AC DUP9 DUP5 PUSH1 0x40 MLOAD DUP4 PUSH4 0xFFFFFFFF AND PUSH1 0xE0 SHL DUP2 MSTORE PUSH1 0x4 ADD PUSH2 0xC90 SWAP3 SWAP2 SWAP1 PUSH2 0x1EE0 JUMP JUMPDEST PUSH1 0x0 PUSH1 0x40 MLOAD DUP1 DUP4 SUB DUP2 DUP7 GAS STATICCALL ISZERO DUP1 ISZERO PUSH2 0xCAD JUMPI RETURNDATASIZE PUSH1 0x0 DUP1 RETURNDATACOPY RETURNDATASIZE PUSH1 0x0 REVERT JUMPDEST POP POP POP POP PUSH1 0x40 MLOAD RETURNDATASIZE PUSH1 0x0 DUP3 RETURNDATACOPY RETURNDATASIZE PUSH1 0x1F NOT PUSH1 0x1F DUP3 ADD AND DUP3 ADD DUP1 PUSH1 0x40 MSTORE POP DUP2 ADD SWAP1 PUSH2 0xCD6 SWAP2 SWAP1 PUSH2 0x1FA7 JUMP JUMPDEST SWAP1 POP PUSH1 0x1 PUSH1 0x0 SWAP1 SLOAD SWAP1 PUSH2 0x100 EXP SWAP1 DIV PUSH20 0xFFFFFFFFFFFFFFFFFFFFFFFFFFFFFFFFFFFFFFFF AND PUSH20 0xFFFFFFFFFFFFFFFFFFFFFFFFFFFFFFFFFFFFFFFF AND PUSH4 0xCAC88EA9 DUP9 DUP4 PUSH1 0x1 DUP2 MLOAD DUP2 LT PUSH2 0xD2B JUMPI PUSH2 0xD2A PUSH2 0x17AA JUMP JUMPDEST JUMPDEST PUSH1 0x20 MUL PUSH1 0x20 ADD ADD MLOAD DUP6 DUP9 TIMESTAMP PUSH1 0x40 MLOAD DUP7 PUSH4 0xFFFFFFFF AND PUSH1 0xE0 SHL DUP2 MSTORE PUSH1 0x4 ADD PUSH2 0xD56 SWAP6 SWAP5 SWAP4 SWAP3 SWAP2 SWAP1 PUSH2 0x1FF0 JUMP JUMPDEST PUSH1 0x0 PUSH1 0x40 MLOAD DUP1 DUP4 SUB DUP2 PUSH1 0x0 DUP8 GAS CALL ISZERO DUP1 ISZERO PUSH2 0xD75 JUMPI RETURNDATASIZE PUSH1 0x0 DUP1 RETURNDATACOPY RETURNDATASIZE PUSH1 0x0 REVERT JUMPDEST POP POP POP POP PUSH1 0x40 MLOAD RETURNDATASIZE PUSH1 0x0 DUP3 RETURNDATACOPY RETURNDATASIZE PUSH1 0x1F NOT PUSH1 0x1F DUP3 ADD AND DUP3 ADD DUP1 PUSH1 0x40 MSTORE POP DUP2 ADD SWAP1 PUSH2 0xD9E SWAP2 SWAP1 PUSH2 0x1FA7 JUMP JUMPDEST SWAP3 POP POP POP SWAP7 SWAP6 POP POP POP POP POP POP JUMP JUMPDEST PUSH1 0x0 DUP1 DUP5 PUSH20 0xFFFFFFFFFFFFFFFFFFFFFFFFFFFFFFFFFFFFFFFF AND PUSH4 0x95EA7B3 PUSH1 0xE0 SHL DUP6 DUP6 PUSH1 0x40 MLOAD PUSH1 0x24 ADD PUSH2 0xDE1 SWAP3 SWAP2 SWAP1 PUSH2 0x1CCE JUMP JUMPDEST PUSH1 0x40 MLOAD PUSH1 0x20 DUP2 DUP4 SUB SUB DUP2 MSTORE SWAP1 PUSH1 0x40 MSTORE SWAP1 PUSH28 0xFFFFFFFFFFFFFFFFFFFFFFFFFFFFFFFFFFFFFFFFFFFFFFFFFFFFFFFF NOT AND PUSH1 0x20 DUP3 ADD DUP1 MLOAD PUSH28 0xFFFFFFFFFFFFFFFFFFFFFFFFFFFFFFFFFFFFFFFFFFFFFFFFFFFFFFFF DUP4 DUP2 DUP4 AND OR DUP4 MSTORE POP POP POP POP PUSH1 0x40 MLOAD PUSH2 0xE4B SWAP2 SWAP1 PUSH2 0x2086 JUMP JUMPDEST PUSH1 0x0 PUSH1 0x40 MLOAD DUP1 DUP4 SUB DUP2 PUSH1 0x0 DUP7 GAS CALL SWAP2 POP POP RETURNDATASIZE DUP1 PUSH1 0x0 DUP2 EQ PUSH2 0xE88 JUMPI PUSH1 0x40 MLOAD SWAP2 POP PUSH1 0x1F NOT PUSH1 0x3F RETURNDATASIZE ADD AND DUP3 ADD PUSH1 0x40 MSTORE RETURNDATASIZE DUP3 MSTORE RETURNDATASIZE PUSH1 0x0 PUSH1 0x20 DUP5 ADD RETURNDATACOPY PUSH2 0xE8D JUMP JUMPDEST PUSH1 0x60 SWAP2 POP JUMPDEST POP SWAP2 POP SWAP2 POP DUP2 DUP1 ISZERO PUSH2 0xEBB JUMPI POP PUSH1 0x0 DUP2 MLOAD EQ DUP1 PUSH2 0xEBA JUMPI POP DUP1 DUP1 PUSH1 0x20 ADD SWAP1 MLOAD DUP2 ADD SWAP1 PUSH2 0xEB9 SWAP2 SWAP1 PUSH2 0x1CF7 JUMP JUMPDEST JUMPDEST JUMPDEST PUSH2 0xEFA JUMPI PUSH1 0x40 MLOAD PUSH32 0x8C379A000000000000000000000000000000000000000000000000000000000 DUP2 MSTORE PUSH1 0x4 ADD PUSH2 0xEF1 SWAP1 PUSH2 0x20FA JUMP JUMPDEST PUSH1 0x40 MLOAD DUP1 SWAP2 SUB SWAP1 REVERT JUMPDEST POP POP POP POP POP JUMP JUMPDEST PUSH1 0x40 MLOAD DUP1 PUSH1 0x80 ADD PUSH1 0x40 MSTORE DUP1 PUSH1 0x0 PUSH20 0xFFFFFFFFFFFFFFFFFFFFFFFFFFFFFFFFFFFFFFFF AND DUP2 MSTORE PUSH1 0x20 ADD PUSH1 0x0 PUSH20 0xFFFFFFFFFFFFFFFFFFFFFFFFFFFFFFFFFFFFFFFF AND DUP2 MSTORE PUSH1 0x20 ADD PUSH1 0x0 ISZERO ISZERO DUP2 MSTORE PUSH1 0x20 ADD PUSH1 0x0 PUSH20 0xFFFFFFFFFFFFFFFFFFFFFFFFFFFFFFFFFFFFFFFF AND DUP2 MSTORE POP SWAP1 JUMP JUMPDEST PUSH1 0x0 PUSH20 0xFFFFFFFFFFFFFFFFFFFFFFFFFFFFFFFFFFFFFFFF DUP3 AND SWAP1 POP SWAP2 SWAP1 POP JUMP JUMPDEST PUSH1 0x0 PUSH2 0xF98 DUP3 PUSH2 0xF6D JUMP JUMPDEST SWAP1 POP SWAP2 SWAP1 POP JUMP JUMPDEST PUSH2 0xFA8 DUP2 PUSH2 0xF8D JUMP JUMPDEST DUP3 MSTORE POP POP JUMP JUMPDEST PUSH1 0x0 PUSH1 0x20 DUP3 ADD SWAP1 POP PUSH2 0xFC3 PUSH1 0x0 DUP4 ADD DUP5 PUSH2 0xF9F JUMP JUMPDEST SWAP3 SWAP2 POP POP JUMP JUMPDEST PUSH1 0x0 PUSH1 0x40 MLOAD SWAP1 POP SWAP1 JUMP JUMPDEST PUSH1 0x0 DUP1 REVERT JUMPDEST PUSH1 0x0 DUP1 REVERT JUMPDEST PUSH1 0x0 DUP1 REVERT JUMPDEST PUSH1 0x0 PUSH1 0x1F NOT PUSH1 0x1F DUP4 ADD AND SWAP1 POP SWAP2 SWAP1 POP JUMP JUMPDEST PUSH32 0x4E487B7100000000000000000000000000000000000000000000000000000000 PUSH1 0x0 MSTORE PUSH1 0x41 PUSH1 0x4 MSTORE PUSH1 0x24 PUSH1 0x0 REVERT JUMPDEST PUSH2 0x102B DUP3 PUSH2 0xFE2 JUMP JUMPDEST DUP2 ADD DUP2 DUP2 LT PUSH8 0xFFFFFFFFFFFFFFFF DUP3 GT OR ISZERO PUSH2 0x104A JUMPI PUSH2 0x1049 PUSH2 0xFF3 JUMP JUMPDEST JUMPDEST DUP1 PUSH1 0x40 MSTORE POP POP POP JUMP JUMPDEST PUSH1 0x0 PUSH2 0x105D PUSH2 0xFC9 JUMP JUMPDEST SWAP1 POP PUSH2 0x1069 DUP3 DUP3 PUSH2 0x1022 JUMP JUMPDEST SWAP2 SWAP1 POP JUMP JUMPDEST PUSH1 0x0 PUSH8 0xFFFFFFFFFFFFFFFF DUP3 GT ISZERO PUSH2 0x1089 JUMPI PUSH2 0x1088 PUSH2 0xFF3 JUMP JUMPDEST JUMPDEST PUSH1 0x20 DUP3 MUL SWAP1 POP PUSH1 0x20 DUP2 ADD SWAP1 POP SWAP2 SWAP1 POP JUMP JUMPDEST PUSH1 0x0 DUP1 REVERT JUMPDEST PUSH2 0x10A8 DUP2 PUSH2 0xF8D JUMP JUMPDEST DUP2 EQ PUSH2 0x10B3 JUMPI PUSH1 0x0 DUP1 REVERT JUMPDEST POP JUMP JUMPDEST PUSH1 0x0 DUP2 CALLDATALOAD SWAP1 POP PUSH2 0x10C5 DUP2 PUSH2 0x109F JUMP JUMPDEST SWAP3 SWAP2 POP POP JUMP JUMPDEST PUSH1 0x0 PUSH2 0x10DE PUSH2 0x10D9 DUP5 PUSH2 0x106E JUMP JUMPDEST PUSH2 0x1053 JUMP JUMPDEST SWAP1 POP DUP1 DUP4 DUP3 MSTORE PUSH1 0x20 DUP3 ADD SWAP1 POP PUSH1 0x20 DUP5 MUL DUP4 ADD DUP6 DUP2 GT ISZERO PUSH2 0x1101 JUMPI PUSH2 0x1100 PUSH2 0x109A JUMP JUMPDEST JUMPDEST DUP4 JUMPDEST DUP2 DUP2 LT ISZERO PUSH2 0x112A JUMPI DUP1 PUSH2 0x1116 DUP9 DUP3 PUSH2 0x10B6 JUMP JUMPDEST DUP5 MSTORE PUSH1 0x20 DUP5 ADD SWAP4 POP POP PUSH1 0x20 DUP2 ADD SWAP1 POP PUSH2 0x1103 JUMP JUMPDEST POP POP POP SWAP4 SWAP3 POP POP POP JUMP JUMPDEST PUSH1 0x0 DUP3 PUSH1 0x1F DUP4 ADD SLT PUSH2 0x1149 JUMPI PUSH2 0x1148 PUSH2 0xFDD JUMP JUMPDEST JUMPDEST DUP2 CALLDATALOAD PUSH2 0x1159 DUP5 DUP3 PUSH1 0x20 DUP7 ADD PUSH2 0x10CB JUMP JUMPDEST SWAP2 POP POP SWAP3 SWAP2 POP POP JUMP JUMPDEST PUSH1 0x0 PUSH3 0xFFFFFF DUP3 AND SWAP1 POP SWAP2 SWAP1 POP JUMP JUMPDEST PUSH2 0x117A DUP2 PUSH2 0x1162 JUMP JUMPDEST DUP2 EQ PUSH2 0x1185 JUMPI PUSH1 0x0 DUP1 REVERT JUMPDEST POP JUMP JUMPDEST PUSH1 0x0 DUP2 CALLDATALOAD SWAP1 POP PUSH2 0x1197 DUP2 PUSH2 0x1171 JUMP JUMPDEST SWAP3 SWAP2 POP POP JUMP JUMPDEST PUSH1 0x0 DUP2 SWAP1 POP SWAP2 SWAP1 POP JUMP JUMPDEST PUSH2 0x11B0 DUP2 PUSH2 0x119D JUMP JUMPDEST DUP2 EQ PUSH2 0x11BB JUMPI PUSH1 0x0 DUP1 REVERT JUMPDEST POP JUMP JUMPDEST PUSH1 0x0 DUP2 CALLDATALOAD SWAP1 POP PUSH2 0x11CD DUP2 PUSH2 0x11A7 JUMP JUMPDEST SWAP3 SWAP2 POP POP JUMP JUMPDEST PUSH1 0x0 DUP2 ISZERO ISZERO SWAP1 POP SWAP2 SWAP1 POP JUMP JUMPDEST PUSH2 0x11E8 DUP2 PUSH2 0x11D3 JUMP JUMPDEST DUP2 EQ PUSH2 0x11F3 JUMPI PUSH1 0x0 DUP1 REVERT JUMPDEST POP JUMP JUMPDEST PUSH1 0x0 DUP2 CALLDATALOAD SWAP1 POP PUSH2 0x1205 DUP2 PUSH2 0x11DF JUMP JUMPDEST SWAP3 SWAP2 POP POP JUMP JUMPDEST PUSH1 0x0 DUP1 PUSH1 0x0 DUP1 PUSH1 0x0 DUP1 PUSH1 0xC0 DUP8 DUP10 SUB SLT ISZERO PUSH2 0x1228 JUMPI PUSH2 0x1227 PUSH2 0xFD3 JUMP JUMPDEST JUMPDEST PUSH1 0x0 DUP8 ADD CALLDATALOAD PUSH8 0xFFFFFFFFFFFFFFFF DUP2 GT ISZERO PUSH2 0x1246 JUMPI PUSH2 0x1245 PUSH2 0xFD8 JUMP JUMPDEST JUMPDEST PUSH2 0x1252 DUP10 DUP3 DUP11 ADD PUSH2 0x1134 JUMP JUMPDEST SWAP7 POP POP PUSH1 0x20 DUP8 ADD CALLDATALOAD PUSH8 0xFFFFFFFFFFFFFFFF DUP2 GT ISZERO PUSH2 0x1273 JUMPI PUSH2 0x1272 PUSH2 0xFD8 JUMP JUMPDEST JUMPDEST PUSH2 0x127F DUP10 DUP3 DUP11 ADD PUSH2 0x1134 JUMP JUMPDEST SWAP6 POP POP PUSH1 0x40 PUSH2 0x1290 DUP10 DUP3 DUP11 ADD PUSH2 0x1188 JUMP JUMPDEST SWAP5 POP POP PUSH1 0x60 PUSH2 0x12A1 DUP10 DUP3 DUP11 ADD PUSH2 0x11BE JUMP JUMPDEST SWAP4 POP POP PUSH1 0x80 PUSH2 0x12B2 DUP10 DUP3 DUP11 ADD PUSH2 0x11BE JUMP JUMPDEST SWAP3 POP POP PUSH1 0xA0 PUSH2 0x12C3 DUP10 DUP3 DUP11 ADD PUSH2 0x11F6 JUMP JUMPDEST SWAP2 POP POP SWAP3 SWAP6 POP SWAP3 SWAP6 POP SWAP3 SWAP6 JUMP JUMPDEST PUSH1 0x0 PUSH8 0xFFFFFFFFFFFFFFFF DUP3 GT ISZERO PUSH2 0x12EB JUMPI PUSH2 0x12EA PUSH2 0xFF3 JUMP JUMPDEST JUMPDEST PUSH1 0x20 DUP3 MUL SWAP1 POP PUSH1 0x20 DUP2 ADD SWAP1 POP SWAP2 SWAP1 POP JUMP JUMPDEST PUSH1 0x0 PUSH2 0x1307 DUP3 PUSH2 0xF8D JUMP JUMPDEST SWAP1 POP SWAP2 SWAP1 POP JUMP JUMPDEST PUSH2 0x1317 DUP2 PUSH2 0x12FC JUMP JUMPDEST DUP2 EQ PUSH2 0x1322 JUMPI PUSH1 0x0 DUP1 REVERT JUMPDEST POP JUMP JUMPDEST PUSH1 0x0 DUP2 CALLDATALOAD SWAP1 POP PUSH2 0x1334 DUP2 PUSH2 0x130E JUMP JUMPDEST SWAP3 SWAP2 POP POP JUMP JUMPDEST PUSH1 0x0 PUSH2 0x134D PUSH2 0x1348 DUP5 PUSH2 0x12D0 JUMP JUMPDEST PUSH2 0x1053 JUMP JUMPDEST SWAP1 POP DUP1 DUP4 DUP3 MSTORE PUSH1 0x20 DUP3 ADD SWAP1 POP PUSH1 0x20 DUP5 MUL DUP4 ADD DUP6 DUP2 GT ISZERO PUSH2 0x1370 JUMPI PUSH2 0x136F PUSH2 0x109A JUMP JUMPDEST JUMPDEST DUP4 JUMPDEST DUP2 DUP2 LT ISZERO PUSH2 0x1399 JUMPI DUP1 PUSH2 0x1385 DUP9 DUP3 PUSH2 0x1325 JUMP JUMPDEST DUP5 MSTORE PUSH1 0x20 DUP5 ADD SWAP4 POP POP PUSH1 0x20 DUP2 ADD SWAP1 POP PUSH2 0x1372 JUMP JUMPDEST POP POP POP SWAP4 SWAP3 POP POP POP JUMP JUMPDEST PUSH1 0x0 DUP3 PUSH1 0x1F DUP4 ADD SLT PUSH2 0x13B8 JUMPI PUSH2 0x13B7 PUSH2 0xFDD JUMP JUMPDEST JUMPDEST DUP2 CALLDATALOAD PUSH2 0x13C8 DUP5 DUP3 PUSH1 0x20 DUP7 ADD PUSH2 0x133A JUMP JUMPDEST SWAP2 POP POP SWAP3 SWAP2 POP POP JUMP JUMPDEST PUSH1 0x0 PUSH8 0xFFFFFFFFFFFFFFFF DUP3 GT ISZERO PUSH2 0x13EC JUMPI PUSH2 0x13EB PUSH2 0xFF3 JUMP JUMPDEST JUMPDEST PUSH1 0x20 DUP3 MUL SWAP1 POP PUSH1 0x20 DUP2 ADD SWAP1 POP SWAP2 SWAP1 POP JUMP JUMPDEST PUSH1 0x0 PUSH2 0x1410 PUSH2 0x140B DUP5 PUSH2 0x13D1 JUMP JUMPDEST PUSH2 0x1053 JUMP JUMPDEST SWAP1 POP DUP1 DUP4 DUP3 MSTORE PUSH1 0x20 DUP3 ADD SWAP1 POP PUSH1 0x20 DUP5 MUL DUP4 ADD DUP6 DUP2 GT ISZERO PUSH2 0x1433 JUMPI PUSH2 0x1432 PUSH2 0x109A JUMP JUMPDEST JUMPDEST DUP4 JUMPDEST DUP2 DUP2 LT ISZERO PUSH2 0x145C JUMPI DUP1 PUSH2 0x1448 DUP9 DUP3 PUSH2 0x11BE JUMP JUMPDEST DUP5 MSTORE PUSH1 0x20 DUP5 ADD SWAP4 POP POP PUSH1 0x20 DUP2 ADD SWAP1 POP PUSH2 0x1435 JUMP JUMPDEST POP POP POP SWAP4 SWAP3 POP POP POP JUMP JUMPDEST PUSH1 0x0 DUP3 PUSH1 0x1F DUP4 ADD SLT PUSH2 0x147B JUMPI PUSH2 0x147A PUSH2 0xFDD JUMP JUMPDEST JUMPDEST DUP2 CALLDATALOAD PUSH2 0x148B DUP5 DUP3 PUSH1 0x20 DUP7 ADD PUSH2 0x13FD JUMP JUMPDEST SWAP2 POP POP SWAP3 SWAP2 POP POP JUMP JUMPDEST PUSH1 0x0 DUP1 REVERT JUMPDEST PUSH1 0x0 PUSH8 0xFFFFFFFFFFFFFFFF DUP3 GT ISZERO PUSH2 0x14B4 JUMPI PUSH2 0x14B3 PUSH2 0xFF3 JUMP JUMPDEST JUMPDEST PUSH2 0x14BD DUP3 PUSH2 0xFE2 JUMP JUMPDEST SWAP1 POP PUSH1 0x20 DUP2 ADD SWAP1 POP SWAP2 SWAP1 POP JUMP JUMPDEST DUP3 DUP2 DUP4 CALLDATACOPY PUSH1 0x0 DUP4 DUP4 ADD MSTORE POP POP POP JUMP JUMPDEST PUSH1 0x0 PUSH2 0x14EC PUSH2 0x14E7 DUP5 PUSH2 0x1499 JUMP JUMPDEST PUSH2 0x1053 JUMP JUMPDEST SWAP1 POP DUP3 DUP2 MSTORE PUSH1 0x20 DUP2 ADD DUP5 DUP5 DUP5 ADD GT ISZERO PUSH2 0x1508 JUMPI PUSH2 0x1507 PUSH2 0x1494 JUMP JUMPDEST JUMPDEST PUSH2 0x1513 DUP5 DUP3 DUP6 PUSH2 0x14CA JUMP JUMPDEST POP SWAP4 SWAP3 POP POP POP JUMP JUMPDEST PUSH1 0x0 DUP3 PUSH1 0x1F DUP4 ADD SLT PUSH2 0x1530 JUMPI PUSH2 0x152F PUSH2 0xFDD JUMP JUMPDEST JUMPDEST DUP2 CALLDATALOAD PUSH2 0x1540 DUP5 DUP3 PUSH1 0x20 DUP7 ADD PUSH2 0x14D9 JUMP JUMPDEST SWAP2 POP POP SWAP3 SWAP2 POP POP JUMP JUMPDEST PUSH1 0x0 DUP1 PUSH1 0x0 DUP1 PUSH1 0x80 DUP6 DUP8 SUB SLT ISZERO PUSH2 0x1563 JUMPI PUSH2 0x1562 PUSH2 0xFD3 JUMP JUMPDEST JUMPDEST PUSH1 0x0 DUP6 ADD CALLDATALOAD PUSH8 0xFFFFFFFFFFFFFFFF DUP2 GT ISZERO PUSH2 0x1581 JUMPI PUSH2 0x1580 PUSH2 0xFD8 JUMP JUMPDEST JUMPDEST PUSH2 0x158D DUP8 DUP3 DUP9 ADD PUSH2 0x13A3 JUMP JUMPDEST SWAP5 POP POP PUSH1 0x20 DUP6 ADD CALLDATALOAD PUSH8 0xFFFFFFFFFFFFFFFF DUP2 GT ISZERO PUSH2 0x15AE JUMPI PUSH2 0x15AD PUSH2 0xFD8 JUMP JUMPDEST JUMPDEST PUSH2 0x15BA DUP8 DUP3 DUP9 ADD PUSH2 0x1466 JUMP JUMPDEST SWAP4 POP POP PUSH1 0x40 DUP6 ADD CALLDATALOAD PUSH8 0xFFFFFFFFFFFFFFFF DUP2 GT ISZERO PUSH2 0x15DB JUMPI PUSH2 0x15DA PUSH2 0xFD8 JUMP JUMPDEST JUMPDEST PUSH2 0x15E7 DUP8 DUP3 DUP9 ADD PUSH2 0x1466 JUMP JUMPDEST SWAP3 POP POP PUSH1 0x60 DUP6 ADD CALLDATALOAD PUSH8 0xFFFFFFFFFFFFFFFF DUP2 GT ISZERO PUSH2 0x1608 JUMPI PUSH2 0x1607 PUSH2 0xFD8 JUMP JUMPDEST JUMPDEST PUSH2 0x1614 DUP8 DUP3 DUP9 ADD PUSH2 0x151B JUMP JUMPDEST SWAP2 POP POP SWAP3 SWAP6 SWAP2 SWAP5 POP SWAP3 POP JUMP JUMPDEST PUSH1 0x0 DUP2 MLOAD SWAP1 POP SWAP2 SWAP1 POP JUMP JUMPDEST PUSH1 0x0 DUP3 DUP3 MSTORE PUSH1 0x20 DUP3 ADD SWAP1 POP SWAP3 SWAP2 POP POP JUMP JUMPDEST PUSH1 0x0 DUP2 SWAP1 POP PUSH1 0x20 DUP3 ADD SWAP1 POP SWAP2 SWAP1 POP JUMP JUMPDEST PUSH2 0x1655 DUP2 PUSH2 0xF8D JUMP JUMPDEST DUP3 MSTORE POP POP JUMP JUMPDEST PUSH1 0x0 PUSH2 0x1667 DUP4 DUP4 PUSH2 0x164C JUMP JUMPDEST PUSH1 0x20 DUP4 ADD SWAP1 POP SWAP3 SWAP2 POP POP JUMP JUMPDEST PUSH1 0x0 PUSH1 0x20 DUP3 ADD SWAP1 POP SWAP2 SWAP1 POP JUMP JUMPDEST PUSH1 0x0 PUSH2 0x168B DUP3 PUSH2 0x1620 JUMP JUMPDEST PUSH2 0x1695 DUP2 DUP6 PUSH2 0x162B JUMP JUMPDEST SWAP4 POP PUSH2 0x16A0 DUP4 PUSH2 0x163C JUMP JUMPDEST DUP1 PUSH1 0x0 JUMPDEST DUP4 DUP2 LT ISZERO PUSH2 0x16D1 JUMPI DUP2 MLOAD PUSH2 0x16B8 DUP9 DUP3 PUSH2 0x165B JUMP JUMPDEST SWAP8 POP PUSH2 0x16C3 DUP4 PUSH2 0x1673 JUMP JUMPDEST SWAP3 POP POP PUSH1 0x1 DUP2 ADD SWAP1 POP PUSH2 0x16A4 JUMP JUMPDEST POP DUP6 SWAP4 POP POP POP POP SWAP3 SWAP2 POP POP JUMP JUMPDEST PUSH2 0x16E7 DUP2 PUSH2 0x1162 JUMP JUMPDEST DUP3 MSTORE POP POP JUMP JUMPDEST PUSH2 0x16F6 DUP2 PUSH2 0x119D JUMP JUMPDEST DUP3 MSTORE POP POP JUMP JUMPDEST PUSH2 0x1705 DUP2 PUSH2 0x11D3 JUMP JUMPDEST DUP3 MSTORE POP POP JUMP JUMPDEST PUSH1 0x0 PUSH1 0xA0 DUP4 ADD PUSH1 0x0 DUP4 ADD MLOAD DUP5 DUP3 SUB PUSH1 0x0 DUP7 ADD MSTORE PUSH2 0x1728 DUP3 DUP3 PUSH2 0x1680 JUMP JUMPDEST SWAP2 POP POP PUSH1 0x20 DUP4 ADD MLOAD DUP5 DUP3 SUB PUSH1 0x20 DUP7 ADD MSTORE PUSH2 0x1742 DUP3 DUP3 PUSH2 0x1680 JUMP JUMPDEST SWAP2 POP POP PUSH1 0x40 DUP4 ADD MLOAD PUSH2 0x1757 PUSH1 0x40 DUP7 ADD DUP3 PUSH2 0x16DE JUMP JUMPDEST POP PUSH1 0x60 DUP4 ADD MLOAD PUSH2 0x176A PUSH1 0x60 DUP7 ADD DUP3 PUSH2 0x16ED JUMP JUMPDEST POP PUSH1 0x80 DUP4 ADD MLOAD PUSH2 0x177D PUSH1 0x80 DUP7 ADD DUP3 PUSH2 0x16FC JUMP JUMPDEST POP DUP1 SWAP2 POP POP SWAP3 SWAP2 POP POP JUMP JUMPDEST PUSH1 0x0 PUSH1 0x20 DUP3 ADD SWAP1 POP DUP2 DUP2 SUB PUSH1 0x0 DUP4 ADD MSTORE PUSH2 0x17A2 DUP2 DUP5 PUSH2 0x170B JUMP JUMPDEST SWAP1 POP SWAP3 SWAP2 POP POP JUMP JUMPDEST PUSH32 0x4E487B7100000000000000000000000000000000000000000000000000000000 PUSH1 0x0 MSTORE PUSH1 0x32 PUSH1 0x4 MSTORE PUSH1 0x24 PUSH1 0x0 REVERT JUMPDEST PUSH1 0x0 DUP2 SWAP1 POP SWAP2 SWAP1 POP JUMP JUMPDEST PUSH1 0x0 PUSH2 0x17FE PUSH2 0x17F9 PUSH2 0x17F4 DUP5 PUSH2 0xF6D JUMP JUMPDEST PUSH2 0x17D9 JUMP JUMPDEST PUSH2 0xF6D JUMP JUMPDEST SWAP1 POP SWAP2 SWAP1 POP JUMP JUMPDEST PUSH1 0x0 PUSH2 0x1810 DUP3 PUSH2 0x17E3 JUMP JUMPDEST SWAP1 POP SWAP2 SWAP1 POP JUMP JUMPDEST PUSH1 0x0 PUSH2 0x1822 DUP3 PUSH2 0x1805 JUMP JUMPDEST SWAP1 POP SWAP2 SWAP1 POP JUMP JUMPDEST PUSH2 0x1832 DUP2 PUSH2 0x1817 JUMP JUMPDEST DUP3 MSTORE POP POP JUMP JUMPDEST PUSH1 0x0 DUP2 MLOAD SWAP1 POP SWAP2 SWAP1 POP JUMP JUMPDEST PUSH1 0x0 DUP3 DUP3 MSTORE PUSH1 0x20 DUP3 ADD SWAP1 POP SWAP3 SWAP2 POP POP JUMP JUMPDEST PUSH1 0x0 DUP2 SWAP1 POP PUSH1 0x20 DUP3 ADD SWAP1 POP SWAP2 SWAP1 POP JUMP JUMPDEST PUSH1 0x0 PUSH2 0x186F DUP3 PUSH2 0x1805 JUMP JUMPDEST SWAP1 POP SWAP2 SWAP1 POP JUMP JUMPDEST PUSH2 0x187F DUP2 PUSH2 0x1864 JUMP JUMPDEST DUP3 MSTORE POP POP JUMP JUMPDEST PUSH1 0x0 PUSH2 0x1891 DUP4 DUP4 PUSH2 0x1876 JUMP JUMPDEST PUSH1 0x20 DUP4 ADD SWAP1 POP SWAP3 SWAP2 POP POP JUMP JUMPDEST PUSH1 0x0 PUSH1 0x20 DUP3 ADD SWAP1 POP SWAP2 SWAP1 POP JUMP JUMPDEST PUSH1 0x0 PUSH2 0x18B5 DUP3 PUSH2 0x1838 JUMP JUMPDEST PUSH2 0x18BF DUP2 DUP6 PUSH2 0x1843 JUMP JUMPDEST SWAP4 POP PUSH2 0x18CA DUP4 PUSH2 0x1854 JUMP JUMPDEST DUP1 PUSH1 0x0 JUMPDEST DUP4 DUP2 LT ISZERO PUSH2 0x18FB JUMPI DUP2 MLOAD PUSH2 0x18E2 DUP9 DUP3 PUSH2 0x1885 JUMP JUMPDEST SWAP8 POP PUSH2 0x18ED DUP4 PUSH2 0x189D JUMP JUMPDEST SWAP3 POP POP PUSH1 0x1 DUP2 ADD SWAP1 POP PUSH2 0x18CE JUMP JUMPDEST POP DUP6 SWAP4 POP POP POP POP SWAP3 SWAP2 POP POP JUMP JUMPDEST PUSH1 0x0 DUP2 MLOAD SWAP1 POP SWAP2 SWAP1 POP JUMP JUMPDEST PUSH1 0x0 DUP3 DUP3 MSTORE PUSH1 0x20 DUP3 ADD SWAP1 POP SWAP3 SWAP2 POP POP JUMP JUMPDEST PUSH1 0x0 DUP2 SWAP1 POP PUSH1 0x20 DUP3 ADD SWAP1 POP SWAP2 SWAP1 POP JUMP JUMPDEST PUSH1 0x0 PUSH2 0x1940 DUP4 DUP4 PUSH2 0x16ED JUMP JUMPDEST PUSH1 0x20 DUP4 ADD SWAP1 POP SWAP3 SWAP2 POP POP JUMP JUMPDEST PUSH1 0x0 PUSH1 0x20 DUP3 ADD SWAP1 POP SWAP2 SWAP1 POP JUMP JUMPDEST PUSH1 0x0 PUSH2 0x1964 DUP3 PUSH2 0x1908 JUMP JUMPDEST PUSH2 0x196E DUP2 DUP6 PUSH2 0x1913 JUMP JUMPDEST SWAP4 POP PUSH2 0x1979 DUP4 PUSH2 0x1924 JUMP JUMPDEST DUP1 PUSH1 0x0 JUMPDEST DUP4 DUP2 LT ISZERO PUSH2 0x19AA JUMPI DUP2 MLOAD PUSH2 0x1991 DUP9 DUP3 PUSH2 0x1934 JUMP JUMPDEST SWAP8 POP PUSH2 0x199C DUP4 PUSH2 0x194C JUMP JUMPDEST SWAP3 POP POP PUSH1 0x1 DUP2 ADD SWAP1 POP PUSH2 0x197D JUMP JUMPDEST POP DUP6 SWAP4 POP POP POP POP SWAP3 SWAP2 POP POP JUMP JUMPDEST PUSH1 0x0 DUP2 MLOAD SWAP1 POP SWAP2 SWAP1 POP JUMP JUMPDEST PUSH1 0x0 DUP3 DUP3 MSTORE PUSH1 0x20 DUP3 ADD SWAP1 POP SWAP3 SWAP2 POP POP JUMP JUMPDEST PUSH1 0x0 JUMPDEST DUP4 DUP2 LT ISZERO PUSH2 0x19F1 JUMPI DUP1 DUP3 ADD MLOAD DUP2 DUP5 ADD MSTORE PUSH1 0x20 DUP2 ADD SWAP1 POP PUSH2 0x19D6 JUMP JUMPDEST PUSH1 0x0 DUP5 DUP5 ADD MSTORE POP POP POP POP JUMP JUMPDEST PUSH1 0x0 PUSH2 0x1A08 DUP3 PUSH2 0x19B7 JUMP JUMPDEST PUSH2 0x1A12 DUP2 DUP6 PUSH2 0x19C2 JUMP JUMPDEST SWAP4 POP PUSH2 0x1A22 DUP2 DUP6 PUSH1 0x20 DUP7 ADD PUSH2 0x19D3 JUMP JUMPDEST PUSH2 0x1A2B DUP2 PUSH2 0xFE2 JUMP JUMPDEST DUP5 ADD SWAP2 POP POP SWAP3 SWAP2 POP POP JUMP JUMPDEST PUSH1 0x0 PUSH1 0x80 DUP3 ADD SWAP1 POP PUSH2 0x1A4B PUSH1 0x0 DUP4 ADD DUP8 PUSH2 0x1829 JUMP JUMPDEST DUP2 DUP2 SUB PUSH1 0x20 DUP4 ADD MSTORE PUSH2 0x1A5D DUP2 DUP7 PUSH2 0x18AA JUMP JUMPDEST SWAP1 POP DUP2 DUP2 SUB PUSH1 0x40 DUP4 ADD MSTORE PUSH2 0x1A71 DUP2 DUP6 PUSH2 0x1959 JUMP JUMPDEST SWAP1 POP DUP2 DUP2 SUB PUSH1 0x60 DUP4 ADD MSTORE PUSH2 0x1A85 DUP2 DUP5 PUSH2 0x19FD JUMP JUMPDEST SWAP1 POP SWAP6 SWAP5 POP POP POP POP POP JUMP JUMPDEST PUSH1 0x0 DUP1 REVERT JUMPDEST PUSH1 0x0 DUP1 REVERT JUMPDEST PUSH1 0x0 DUP2 MLOAD SWAP1 POP PUSH2 0x1AA9 DUP2 PUSH2 0x109F JUMP JUMPDEST SWAP3 SWAP2 POP POP JUMP JUMPDEST PUSH1 0x0 PUSH2 0x1AC2 PUSH2 0x1ABD DUP5 PUSH2 0x106E JUMP JUMPDEST PUSH2 0x1053 JUMP JUMPDEST SWAP1 POP DUP1 DUP4 DUP3 MSTORE PUSH1 0x20 DUP3 ADD SWAP1 POP PUSH1 0x20 DUP5 MUL DUP4 ADD DUP6 DUP2 GT ISZERO PUSH2 0x1AE5 JUMPI PUSH2 0x1AE4 PUSH2 0x109A JUMP JUMPDEST JUMPDEST DUP4 JUMPDEST DUP2 DUP2 LT ISZERO PUSH2 0x1B0E JUMPI DUP1 PUSH2 0x1AFA DUP9 DUP3 PUSH2 0x1A9A JUMP JUMPDEST DUP5 MSTORE PUSH1 0x20 DUP5 ADD SWAP4 POP POP PUSH1 0x20 DUP2 ADD SWAP1 POP PUSH2 0x1AE7 JUMP JUMPDEST POP POP POP SWAP4 SWAP3 POP POP POP JUMP JUMPDEST PUSH1 0x0 DUP3 PUSH1 0x1F DUP4 ADD SLT PUSH2 0x1B2D JUMPI PUSH2 0x1B2C PUSH2 0xFDD JUMP JUMPDEST JUMPDEST DUP2 MLOAD PUSH2 0x1B3D DUP5 DUP3 PUSH1 0x20 DUP7 ADD PUSH2 0x1AAF JUMP JUMPDEST SWAP2 POP POP SWAP3 SWAP2 POP POP JUMP JUMPDEST PUSH1 0x0 DUP2 MLOAD SWAP1 POP PUSH2 0x1B55 DUP2 PUSH2 0x1171 JUMP JUMPDEST SWAP3 SWAP2 POP POP JUMP JUMPDEST PUSH1 0x0 DUP2 MLOAD SWAP1 POP PUSH2 0x1B6A DUP2 PUSH2 0x11A7 JUMP JUMPDEST SWAP3 SWAP2 POP POP JUMP JUMPDEST PUSH1 0x0 DUP2 MLOAD SWAP1 POP PUSH2 0x1B7F DUP2 PUSH2 0x11DF JUMP JUMPDEST SWAP3 SWAP2 POP POP JUMP JUMPDEST PUSH1 0x0 PUSH1 0xA0 DUP3 DUP5 SUB SLT ISZERO PUSH2 0x1B9B JUMPI PUSH2 0x1B9A PUSH2 0x1A90 JUMP JUMPDEST JUMPDEST PUSH2 0x1BA5 PUSH1 0xA0 PUSH2 0x1053 JUMP JUMPDEST SWAP1 POP PUSH1 0x0 DUP3 ADD MLOAD PUSH8 0xFFFFFFFFFFFFFFFF DUP2 GT ISZERO PUSH2 0x1BC5 JUMPI PUSH2 0x1BC4 PUSH2 0x1A95 JUMP JUMPDEST JUMPDEST PUSH2 0x1BD1 DUP5 DUP3 DUP6 ADD PUSH2 0x1B18 JUMP JUMPDEST PUSH1 0x0 DUP4 ADD MSTORE POP PUSH1 0x20 DUP3 ADD MLOAD PUSH8 0xFFFFFFFFFFFFFFFF DUP2 GT ISZERO PUSH2 0x1BF5 JUMPI PUSH2 0x1BF4 PUSH2 0x1A95 JUMP JUMPDEST JUMPDEST PUSH2 0x1C01 DUP5 DUP3 DUP6 ADD PUSH2 0x1B18 JUMP JUMPDEST PUSH1 0x20 DUP4 ADD MSTORE POP PUSH1 0x40 PUSH2 0x1C15 DUP5 DUP3 DUP6 ADD PUSH2 0x1B46 JUMP JUMPDEST PUSH1 0x40 DUP4 ADD MSTORE POP PUSH1 0x60 PUSH2 0x1C29 DUP5 DUP3 DUP6 ADD PUSH2 0x1B5B JUMP JUMPDEST PUSH1 0x60 DUP4 ADD MSTORE POP PUSH1 0x80 PUSH2 0x1C3D DUP5 DUP3 DUP6 ADD PUSH2 0x1B70 JUMP JUMPDEST PUSH1 0x80 DUP4 ADD MSTORE POP SWAP3 SWAP2 POP POP JUMP JUMPDEST PUSH1 0x0 PUSH1 0x20 DUP3 DUP5 SUB SLT ISZERO PUSH2 0x1C5F JUMPI PUSH2 0x1C5E PUSH2 0xFD3 JUMP JUMPDEST JUMPDEST PUSH1 0x0 DUP3 ADD MLOAD PUSH8 0xFFFFFFFFFFFFFFFF DUP2 GT ISZERO PUSH2 0x1C7D JUMPI PUSH2 0x1C7C PUSH2 0xFD8 JUMP JUMPDEST JUMPDEST PUSH2 0x1C89 DUP5 DUP3 DUP6 ADD PUSH2 0x1B85 JUMP JUMPDEST SWAP2 POP POP SWAP3 SWAP2 POP POP JUMP JUMPDEST PUSH1 0x0 PUSH1 0x20 DUP3 DUP5 SUB SLT ISZERO PUSH2 0x1CA8 JUMPI PUSH2 0x1CA7 PUSH2 0xFD3 JUMP JUMPDEST JUMPDEST PUSH1 0x0 PUSH2 0x1CB6 DUP5 DUP3 DUP6 ADD PUSH2 0x1B5B JUMP JUMPDEST SWAP2 POP POP SWAP3 SWAP2 POP POP JUMP JUMPDEST PUSH2 0x1CC8 DUP2 PUSH2 0x119D JUMP JUMPDEST DUP3 MSTORE POP POP JUMP JUMPDEST PUSH1 0x0 PUSH1 0x40 DUP3 ADD SWAP1 POP PUSH2 0x1CE3 PUSH1 0x0 DUP4 ADD DUP6 PUSH2 0xF9F JUMP JUMPDEST PUSH2 0x1CF0 PUSH1 0x20 DUP4 ADD DUP5 PUSH2 0x1CBF JUMP JUMPDEST SWAP4 SWAP3 POP POP POP JUMP JUMPDEST PUSH1 0x0 PUSH1 0x20 DUP3 DUP5 SUB SLT ISZERO PUSH2 0x1D0D JUMPI PUSH2 0x1D0C PUSH2 0xFD3 JUMP JUMPDEST JUMPDEST PUSH1 0x0 PUSH2 0x1D1B DUP5 DUP3 DUP6 ADD PUSH2 0x1B70 JUMP JUMPDEST SWAP2 POP POP SWAP3 SWAP2 POP POP JUMP JUMPDEST PUSH2 0x1D2D DUP2 PUSH2 0xF6D JUMP JUMPDEST DUP3 MSTORE POP POP JUMP JUMPDEST PUSH1 0xE0 DUP3 ADD PUSH1 0x0 DUP3 ADD MLOAD PUSH2 0x1D49 PUSH1 0x0 DUP6 ADD DUP3 PUSH2 0x164C JUMP JUMPDEST POP PUSH1 0x20 DUP3 ADD MLOAD PUSH2 0x1D5C PUSH1 0x20 DUP6 ADD DUP3 PUSH2 0x164C JUMP JUMPDEST POP PUSH1 0x40 DUP3 ADD MLOAD PUSH2 0x1D6F PUSH1 0x40 DUP6 ADD DUP3 PUSH2 0x16DE JUMP JUMPDEST POP PUSH1 0x60 DUP3 ADD MLOAD PUSH2 0x1D82 PUSH1 0x60 DUP6 ADD DUP3 PUSH2 0x164C JUMP JUMPDEST POP PUSH1 0x80 DUP3 ADD MLOAD PUSH2 0x1D95 PUSH1 0x80 DUP6 ADD DUP3 PUSH2 0x16ED JUMP JUMPDEST POP PUSH1 0xA0 DUP3 ADD MLOAD PUSH2 0x1DA8 PUSH1 0xA0 DUP6 ADD DUP3 PUSH2 0x16ED JUMP JUMPDEST POP PUSH1 0xC0 DUP3 ADD MLOAD PUSH2 0x1DBB PUSH1 0xC0 DUP6 ADD DUP3 PUSH2 0x1D24 JUMP JUMPDEST POP POP POP POP JUMP JUMPDEST PUSH1 0x0 PUSH1 0xE0 DUP3 ADD SWAP1 POP PUSH2 0x1DD6 PUSH1 0x0 DUP4 ADD DUP5 PUSH2 0x1D33 JUMP JUMPDEST SWAP3 SWAP2 POP POP JUMP JUMPDEST PUSH1 0x0 DUP2 MLOAD SWAP1 POP SWAP2 SWAP1 POP JUMP JUMPDEST PUSH1 0x0 DUP3 DUP3 MSTORE PUSH1 0x20 DUP3 ADD SWAP1 POP SWAP3 SWAP2 POP POP JUMP JUMPDEST PUSH1 0x0 DUP2 SWAP1 POP PUSH1 0x20 DUP3 ADD SWAP1 POP SWAP2 SWAP1 POP JUMP JUMPDEST PUSH1 0x80 DUP3 ADD PUSH1 0x0 DUP3 ADD MLOAD PUSH2 0x1E1E PUSH1 0x0 DUP6 ADD DUP3 PUSH2 0x164C JUMP JUMPDEST POP PUSH1 0x20 DUP3 ADD MLOAD PUSH2 0x1E31 PUSH1 0x20 DUP6 ADD DUP3 PUSH2 0x164C JUMP JUMPDEST POP PUSH1 0x40 DUP3 ADD MLOAD PUSH2 0x1E44 PUSH1 0x40 DUP6 ADD DUP3 PUSH2 0x16FC JUMP JUMPDEST POP PUSH1 0x60 DUP3 ADD MLOAD PUSH2 0x1E57 PUSH1 0x60 DUP6 ADD DUP3 PUSH2 0x164C JUMP JUMPDEST POP POP POP POP JUMP JUMPDEST PUSH1 0x0 PUSH2 0x1E69 DUP4 DUP4 PUSH2 0x1E08 JUMP JUMPDEST PUSH1 0x80 DUP4 ADD SWAP1 POP SWAP3 SWAP2 POP POP JUMP JUMPDEST PUSH1 0x0 PUSH1 0x20 DUP3 ADD SWAP1 POP SWAP2 SWAP1 POP JUMP JUMPDEST PUSH1 0x0 PUSH2 0x1E8D DUP3 PUSH2 0x1DDC JUMP JUMPDEST PUSH2 0x1E97 DUP2 DUP6 PUSH2 0x1DE7 JUMP JUMPDEST SWAP4 POP PUSH2 0x1EA2 DUP4 PUSH2 0x1DF8 JUMP JUMPDEST DUP1 PUSH1 0x0 JUMPDEST DUP4 DUP2 LT ISZERO PUSH2 0x1ED3 JUMPI DUP2 MLOAD PUSH2 0x1EBA DUP9 DUP3 PUSH2 0x1E5D JUMP JUMPDEST SWAP8 POP PUSH2 0x1EC5 DUP4 PUSH2 0x1E75 JUMP JUMPDEST SWAP3 POP POP PUSH1 0x1 DUP2 ADD SWAP1 POP PUSH2 0x1EA6 JUMP JUMPDEST POP DUP6 SWAP4 POP POP POP POP SWAP3 SWAP2 POP POP JUMP JUMPDEST PUSH1 0x0 PUSH1 0x40 DUP3 ADD SWAP1 POP PUSH2 0x1EF5 PUSH1 0x0 DUP4 ADD DUP6 PUSH2 0x1CBF JUMP JUMPDEST DUP2 DUP2 SUB PUSH1 0x20 DUP4 ADD MSTORE PUSH2 0x1F07 DUP2 DUP5 PUSH2 0x1E82 JUMP JUMPDEST SWAP1 POP SWAP4 SWAP3 POP POP POP JUMP JUMPDEST PUSH1 0x0 PUSH2 0x1F23 PUSH2 0x1F1E DUP5 PUSH2 0x13D1 JUMP JUMPDEST PUSH2 0x1053 JUMP JUMPDEST SWAP1 POP DUP1 DUP4 DUP3 MSTORE PUSH1 0x20 DUP3 ADD SWAP1 POP PUSH1 0x20 DUP5 MUL DUP4 ADD DUP6 DUP2 GT ISZERO PUSH2 0x1F46 JUMPI PUSH2 0x1F45 PUSH2 0x109A JUMP JUMPDEST JUMPDEST DUP4 JUMPDEST DUP2 DUP2 LT ISZERO PUSH2 0x1F6F JUMPI DUP1 PUSH2 0x1F5B DUP9 DUP3 PUSH2 0x1B5B JUMP JUMPDEST DUP5 MSTORE PUSH1 0x20 DUP5 ADD SWAP4 POP POP PUSH1 0x20 DUP2 ADD SWAP1 POP PUSH2 0x1F48 JUMP JUMPDEST POP POP POP SWAP4 SWAP3 POP POP POP JUMP JUMPDEST PUSH1 0x0 DUP3 PUSH1 0x1F DUP4 ADD SLT PUSH2 0x1F8E JUMPI PUSH2 0x1F8D PUSH2 0xFDD JUMP JUMPDEST JUMPDEST DUP2 MLOAD PUSH2 0x1F9E DUP5 DUP3 PUSH1 0x20 DUP7 ADD PUSH2 0x1F10 JUMP JUMPDEST SWAP2 POP POP SWAP3 SWAP2 POP POP JUMP JUMPDEST PUSH1 0x0 PUSH1 0x20 DUP3 DUP5 SUB SLT ISZERO PUSH2 0x1FBD JUMPI PUSH2 0x1FBC PUSH2 0xFD3 JUMP JUMPDEST JUMPDEST PUSH1 0x0 DUP3 ADD MLOAD PUSH8 0xFFFFFFFFFFFFFFFF DUP2 GT ISZERO PUSH2 0x1FDB JUMPI PUSH2 0x1FDA PUSH2 0xFD8 JUMP JUMPDEST JUMPDEST PUSH2 0x1FE7 DUP5 DUP3 DUP6 ADD PUSH2 0x1F79 JUMP JUMPDEST SWAP2 POP POP SWAP3 SWAP2 POP POP JUMP JUMPDEST PUSH1 0x0 PUSH1 0xA0 DUP3 ADD SWAP1 POP PUSH2 0x2005 PUSH1 0x0 DUP4 ADD DUP9 PUSH2 0x1CBF JUMP JUMPDEST PUSH2 0x2012 PUSH1 0x20 DUP4 ADD DUP8 PUSH2 0x1CBF JUMP JUMPDEST DUP2 DUP2 SUB PUSH1 0x40 DUP4 ADD MSTORE PUSH2 0x2024 DUP2 DUP7 PUSH2 0x1E82 JUMP JUMPDEST SWAP1 POP PUSH2 0x2033 PUSH1 0x60 DUP4 ADD DUP6 PUSH2 0xF9F JUMP JUMPDEST PUSH2 0x2040 PUSH1 0x80 DUP4 ADD DUP5 PUSH2 0x1CBF JUMP JUMPDEST SWAP7 SWAP6 POP POP POP POP POP POP JUMP JUMPDEST PUSH1 0x0 DUP2 SWAP1 POP SWAP3 SWAP2 POP POP JUMP JUMPDEST PUSH1 0x0 PUSH2 0x2060 DUP3 PUSH2 0x19B7 JUMP JUMPDEST PUSH2 0x206A DUP2 DUP6 PUSH2 0x204A JUMP JUMPDEST SWAP4 POP PUSH2 0x207A DUP2 DUP6 PUSH1 0x20 DUP7 ADD PUSH2 0x19D3 JUMP JUMPDEST DUP1 DUP5 ADD SWAP2 POP POP SWAP3 SWAP2 POP POP JUMP JUMPDEST PUSH1 0x0 PUSH2 0x2092 DUP3 DUP5 PUSH2 0x2055 JUMP JUMPDEST SWAP2 POP DUP2 SWAP1 POP SWAP3 SWAP2 POP POP JUMP JUMPDEST PUSH1 0x0 DUP3 DUP3 MSTORE PUSH1 0x20 DUP3 ADD SWAP1 POP SWAP3 SWAP2 POP POP JUMP JUMPDEST PUSH32 0x5341000000000000000000000000000000000000000000000000000000000000 PUSH1 0x0 DUP3 ADD MSTORE POP JUMP JUMPDEST PUSH1 0x0 PUSH2 0x20E4 PUSH1 0x2 DUP4 PUSH2 0x209D JUMP JUMPDEST SWAP2 POP PUSH2 0x20EF DUP3 PUSH2 0x20AE JUMP JUMPDEST PUSH1 0x20 DUP3 ADD SWAP1 POP SWAP2 SWAP1 POP JUMP JUMPDEST PUSH1 0x0 PUSH1 0x20 DUP3 ADD SWAP1 POP DUP2 DUP2 SUB PUSH1 0x0 DUP4 ADD MSTORE PUSH2 0x2113 DUP2 PUSH2 0x20D7 JUMP JUMPDEST SWAP1 POP SWAP2 SWAP1 POP JUMP INVALID LOG2 PUSH5 0x6970667358 0x22 SLT KECCAK256 0xFC MUL 0xE3 DUP8 PUSH16 0x574370FDF2C09D219893B06F87D891A1 SWAP14 0xDB SWAP11 CALLER SELFBALANCE 0x4C RETURNDATACOPY MOD RETURN NUMBER ADDRESS PUSH5 0x736F6C6343 STOP ADDMOD SLT STOP CALLER "},"methodIdentifiers":{"QUOTER_ADDRESS()":"5880c7eb","executeTrade(address[],address[],uint24,uint256,uint256,bool)":"7c84b9b4","factory()":"c45a0155","owner()":"8da5cb5b","receiveFlashLoan(address[],uint256[],uint256[],bytes)":"f04f2707","router()":"f887ea40"}}}}}