{
  "_format": "hh-sol-artifact-1",
  "contractName": "Arbitrage",
  "sourceName": "contracts/Arbitrage.sol",
  "abi": [
    {
      "inputs": [],
      "stateMutability": "nonpayable",
      "type": "constructor"
    },
    {
      "inputs": [],
      "name": "QUOTER_ADDRESS",
      "outputs": [
        {
          "internalType": "address",
          "name": "",
          "type": "address"
        }
      ],
      "stateMutability": "view",
      "type": "function"
    },
    {
      "inputs": [
        {
          "internalType": "address[]",
          "name": "_routerPath",
          "type": "address[]"
        },
        {
          "internalType": "address[]",
          "name": "_tokenPath",
          "type": "address[]"
        },
        {
          "internalType": "uint24",
          "name": "_fee",
          "type": "uint24"
        },
        {
          "internalType": "uint256",
          "name": "_token1_needed",
          "type": "uint256"
        },
        {
          "internalType": "uint256",
          "name": "_flashAmount",
          "type": "uint256"
        },
        {
          "internalType": "bool",
          "name": "_firstUni",
          "type": "bool"
        }
      ],
      "name": "executeTrade",
      "outputs": [],
      "stateMutability": "nonpayable",
      "type": "function"
    },
    {
      "inputs": [],
      "name": "factory",
      "outputs": [
        {
          "internalType": "address",
          "name": "",
          "type": "address"
        }
      ],
      "stateMutability": "view",
      "type": "function"
    },
    {
      "inputs": [],
      "name": "owner",
      "outputs": [
        {
          "internalType": "address",
          "name": "",
          "type": "address"
        }
      ],
      "stateMutability": "view",
      "type": "function"
    },
    {
      "inputs": [
        {
          "internalType": "contract IERC20[]",
          "name": "tokens",
          "type": "address[]"
        },
        {
          "internalType": "uint256[]",
          "name": "amounts",
          "type": "uint256[]"
        },
        {
          "internalType": "uint256[]",
          "name": "feeAmounts",
          "type": "uint256[]"
        },
        {
          "internalType": "bytes",
          "name": "userData",
          "type": "bytes"
        }
      ],
      "name": "receiveFlashLoan",
      "outputs": [],
      "stateMutability": "nonpayable",
      "type": "function"
    },
    {
      "inputs": [],
      "name": "router",
      "outputs": [
        {
          "internalType": "address",
          "name": "",
          "type": "address"
        }
      ],
      "stateMutability": "view",
      "type": "function"
    }
  ],
  "bytecode": "0x608060405273cf77a3ba9a5ca399b7c97c74d54e5b1beb874e43600160006101000a81548173ffffffffffffffffffffffffffffffffffffffff021916908373ffffffffffffffffffffffffffffffffffffffff16021790555073420dd381b31aef6683db6b902084cb0ffece40da600260006101000a81548173ffffffffffffffffffffffffffffffffffffffff021916908373ffffffffffffffffffffffffffffffffffffffff160217905550733d4e44eb1374240ce5f1b871ab261cd16335b76a600360006101000a81548173ffffffffffffffffffffffffffffffffffffffff021916908373ffffffffffffffffffffffffffffffffffffffff16021790555034801561010f57600080fd5b50336000806101000a81548173ffffffffffffffffffffffffffffffffffffffff021916908373ffffffffffffffffffffffffffffffffffffffff1602179055506121508061015f6000396000f3fe608060405234801561001057600080fd5b50600436106100625760003560e01c80635880c7eb146100675780637c84b9b4146100855780638da5cb5b146100a1578063c45a0155146100bf578063f04f2707146100dd578063f887ea40146100f9575b600080fd5b61006f610117565b60405161007c9190610fae565b60405180910390f35b61009f600480360381019061009a919061120b565b61013d565b005b6100a961039d565b6040516100b69190610fae565b60405180910390f35b6100c76103c1565b6040516100d49190610fae565b60405180910390f35b6100f760048036038101906100f29190611549565b6103e7565b005b610101610943565b60405161010e9190610fae565b60405180910390f35b600360009054906101000a900473ffffffffffffffffffffffffffffffffffffffff1681565b60006040518060a001604052808881526020018781526020018662ffffff16815260200185815260200183151581525060405160200161017d9190611788565b604051602081830303815290604052905060008054906101000a900473ffffffffffffffffffffffffffffffffffffffff1673ffffffffffffffffffffffffffffffffffffffff163373ffffffffffffffffffffffffffffffffffffffff16146101e657600080fd5b6000600167ffffffffffffffff81111561020357610202610ff3565b5b6040519080825280602002602001820160405280156102315781602001602082028036833780820191505090505b50905086600081518110610248576102476117aa565b5b602002602001015181600081518110610264576102636117aa565b5b602002602001019073ffffffffffffffffffffffffffffffffffffffff16908173ffffffffffffffffffffffffffffffffffffffff16815250506000600167ffffffffffffffff8111156102bb576102ba610ff3565b5b6040519080825280602002602001820160405280156102e95781602001602082028036833780820191505090505b5090508481600081518110610301576103006117aa565b5b60200260200101818152505073ba12222222228d8ba445958a75a0704d566bf2c873ffffffffffffffffffffffffffffffffffffffff16635c38449e308484876040518563ffffffff1660e01b81526004016103609493929190611a36565b600060405180830381600087803b15801561037a57600080fd5b505af115801561038e573d6000803e3d6000fd5b50505050505050505050505050565b60008054906101000a900473ffffffffffffffffffffffffffffffffffffffff1681565b600260009054906101000a900473ffffffffffffffffffffffffffffffffffffffff1681565b73ba12222222228d8ba445958a75a0704d566bf2c873ffffffffffffffffffffffffffffffffffffffff163373ffffffffffffffffffffffffffffffffffffffff161461043357600080fd5b6000818060200190518101906104499190611c49565b9050600084600081518110610461576104606117aa565b5b602002602001015190506001151582608001511515036105d9576104ee8260000151600081518110610496576104956117aa565b5b602002602001015183602001516000815181106104b6576104b56117aa565b5b60200260200101518385602001516001815181106104d7576104d66117aa565b5b602002602001015186606001518760400151610969565b6105d38260200151600181518110610509576105086117aa565b5b60200260200101518360200151600081518110610529576105286117aa565b5b60200260200101518460200151600181518110610549576105486117aa565b5b602002602001015173ffffffffffffffffffffffffffffffffffffffff166370a08231306040518263ffffffff1660e01b81526004016105899190610fae565b602060405180830381865afa1580156105a6573d6000803e3d6000fd5b505050506040513d601f19601f820116820180604052508101906105ca9190611c92565b84600030610a8f565b50610733565b61062a82602001516000815181106105f4576105f36117aa565b5b60200260200101518360200151600181518110610614576106136117aa565b5b6020026020010151838560600151600030610a8f565b506107328260000151600181518110610646576106456117aa565b5b60200260200101518360200151600181518110610666576106656117aa565b5b60200260200101518460200151600181518110610686576106856117aa565b5b602002602001015173ffffffffffffffffffffffffffffffffffffffff166370a08231306040518263ffffffff1660e01b81526004016106c69190610fae565b602060405180830381865afa1580156106e3573d6000803e3d6000fd5b505050506040513d601f19601f820116820180604052508101906107079190611c92565b856020015160008151811061071f5761071e6117aa565b5b6020026020010151858760400151610969565b5b816020015160008151811061074b5761074a6117aa565b5b602002602001015173ffffffffffffffffffffffffffffffffffffffff1663a9059cbb73ba12222222228d8ba445958a75a0704d566bf2c8836040518363ffffffff1660e01b81526004016107a1929190611cce565b6020604051808303816000875af11580156107c0573d6000803e3d6000fd5b505050506040513d601f19601f820116820180604052508101906107e49190611cf7565b5081602001516000815181106107fd576107fc6117aa565b5b602002602001015173ffffffffffffffffffffffffffffffffffffffff1663a9059cbb60008054906101000a900473ffffffffffffffffffffffffffffffffffffffff168460200151600081518110610859576108586117aa565b5b602002602001015173ffffffffffffffffffffffffffffffffffffffff166370a08231306040518263ffffffff1660e01b81526004016108999190610fae565b602060405180830381865afa1580156108b6573d6000803e3d6000fd5b505050506040513d601f19601f820116820180604052508101906108da9190611c92565b6040518363ffffffff1660e01b81526004016108f7929190611cce565b6020604051808303816000875af1158015610916573d6000803e3d6000fd5b505050506040513d601f19601f8201168201806040525081019061093a9190611cf7565b50505050505050565b600160009054906101000a900473ffffffffffffffffffffffffffffffffffffffff1681565b610974858786610dac565b60006040518060e001604052808773ffffffffffffffffffffffffffffffffffffffff1681526020018573ffffffffffffffffffffffffffffffffffffffff1681526020018362ffffff1681526020013073ffffffffffffffffffffffffffffffffffffffff168152602001868152602001848152602001600073ffffffffffffffffffffffffffffffffffffffff1681525090508673ffffffffffffffffffffffffffffffffffffffff166304e45aaf826040518263ffffffff1660e01b8152600401610a429190611dc1565b6020604051808303816000875af1158015610a61573d6000803e3d6000fd5b505050506040513d601f19601f82011682018060405250810190610a859190611c92565b5050505050505050565b60608673ffffffffffffffffffffffffffffffffffffffff1663095ea7b3600160009054906101000a900473ffffffffffffffffffffffffffffffffffffffff16876040518363ffffffff1660e01b8152600401610aee929190611cce565b6020604051808303816000875af1158015610b0d573d6000803e3d6000fd5b505050506040513d601f19601f82011682018060405250810190610b319190611cf7565b506000600167ffffffffffffffff811115610b4f57610b4e610ff3565b5b604051908082528060200260200182016040528015610b8857816020015b610b75610f01565b815260200190600190039081610b6d5790505b50905060405180608001604052808973ffffffffffffffffffffffffffffffffffffffff1681526020018873ffffffffffffffffffffffffffffffffffffffff1681526020018515158152602001600260009054906101000a900473ffffffffffffffffffffffffffffffffffffffff1673ffffffffffffffffffffffffffffffffffffffff1681525081600081518110610c2657610c256117aa565b5b60200260200101819052506000600160009054906101000a900473ffffffffffffffffffffffffffffffffffffffff1673ffffffffffffffffffffffffffffffffffffffff16635509a1ac88846040518363ffffffff1660e01b8152600401610c90929190611ee0565b600060405180830381865afa158015610cad573d6000803e3d6000fd5b505050506040513d6000823e3d601f19601f82011682018060405250810190610cd69190611fa7565b9050600160009054906101000a900473ffffffffffffffffffffffffffffffffffffffff1673ffffffffffffffffffffffffffffffffffffffff1663cac88ea98883600181518110610d2b57610d2a6117aa565b5b60200260200101518588426040518663ffffffff1660e01b8152600401610d56959493929190611ff0565b6000604051808303816000875af1158015610d75573d6000803e3d6000fd5b505050506040513d6000823e3d601f19601f82011682018060405250810190610d9e9190611fa7565b925050509695505050505050565b6000808473ffffffffffffffffffffffffffffffffffffffff1663095ea7b360e01b8585604051602401610de1929190611cce565b604051602081830303815290604052907bffffffffffffffffffffffffffffffffffffffffffffffffffffffff19166020820180517bffffffffffffffffffffffffffffffffffffffffffffffffffffffff8381831617835250505050604051610e4b9190612086565b6000604051808303816000865af19150503d8060008114610e88576040519150601f19603f3d011682016040523d82523d6000602084013e610e8d565b606091505b5091509150818015610ebb5750600081511480610eba575080806020019051810190610eb99190611cf7565b5b5b610efa576040517f08c379a0000000000000000000000000000000000000000000000000000000008152600401610ef1906120fa565b60405180910390fd5b5050505050565b6040518060800160405280600073ffffffffffffffffffffffffffffffffffffffff168152602001600073ffffffffffffffffffffffffffffffffffffffff168152602001600015158152602001600073ffffffffffffffffffffffffffffffffffffffff1681525090565b600073ffffffffffffffffffffffffffffffffffffffff82169050919050565b6000610f9882610f6d565b9050919050565b610fa881610f8d565b82525050565b6000602082019050610fc36000830184610f9f565b92915050565b6000604051905090565b600080fd5b600080fd5b600080fd5b6000601f19601f8301169050919050565b7f4e487b7100000000000000000000000000000000000000000000000000000000600052604160045260246000fd5b61102b82610fe2565b810181811067ffffffffffffffff8211171561104a57611049610ff3565b5b80604052505050565b600061105d610fc9565b90506110698282611022565b919050565b600067ffffffffffffffff82111561108957611088610ff3565b5b602082029050602081019050919050565b600080fd5b6110a881610f8d565b81146110b357600080fd5b50565b6000813590506110c58161109f565b92915050565b60006110de6110d98461106e565b611053565b905080838252602082019050602084028301858111156111015761110061109a565b5b835b8181101561112a578061111688826110b6565b845260208401935050602081019050611103565b5050509392505050565b600082601f83011261114957611148610fdd565b5b81356111598482602086016110cb565b91505092915050565b600062ffffff82169050919050565b61117a81611162565b811461118557600080fd5b50565b60008135905061119781611171565b92915050565b6000819050919050565b6111b08161119d565b81146111bb57600080fd5b50565b6000813590506111cd816111a7565b92915050565b60008115159050919050565b6111e8816111d3565b81146111f357600080fd5b50565b600081359050611205816111df565b92915050565b60008060008060008060c0878903121561122857611227610fd3565b5b600087013567ffffffffffffffff81111561124657611245610fd8565b5b61125289828a01611134565b965050602087013567ffffffffffffffff81111561127357611272610fd8565b5b61127f89828a01611134565b955050604061129089828a01611188565b94505060606112a189828a016111be565b93505060806112b289828a016111be565b92505060a06112c389828a016111f6565b9150509295509295509295565b600067ffffffffffffffff8211156112eb576112ea610ff3565b5b602082029050602081019050919050565b600061130782610f8d565b9050919050565b611317816112fc565b811461132257600080fd5b50565b6000813590506113348161130e565b92915050565b600061134d611348846112d0565b611053565b905080838252602082019050602084028301858111156113705761136f61109a565b5b835b8181101561139957806113858882611325565b845260208401935050602081019050611372565b5050509392505050565b600082601f8301126113b8576113b7610fdd565b5b81356113c884826020860161133a565b91505092915050565b600067ffffffffffffffff8211156113ec576113eb610ff3565b5b602082029050602081019050919050565b600061141061140b846113d1565b611053565b905080838252602082019050602084028301858111156114335761143261109a565b5b835b8181101561145c578061144888826111be565b845260208401935050602081019050611435565b5050509392505050565b600082601f83011261147b5761147a610fdd565b5b813561148b8482602086016113fd565b91505092915050565b600080fd5b600067ffffffffffffffff8211156114b4576114b3610ff3565b5b6114bd82610fe2565b9050602081019050919050565b82818337600083830152505050565b60006114ec6114e784611499565b611053565b90508281526020810184848401111561150857611507611494565b5b6115138482856114ca565b509392505050565b600082601f8301126115305761152f610fdd565b5b81356115408482602086016114d9565b91505092915050565b6000806000806080858703121561156357611562610fd3565b5b600085013567ffffffffffffffff81111561158157611580610fd8565b5b61158d878288016113a3565b945050602085013567ffffffffffffffff8111156115ae576115ad610fd8565b5b6115ba87828801611466565b935050604085013567ffffffffffffffff8111156115db576115da610fd8565b5b6115e787828801611466565b925050606085013567ffffffffffffffff81111561160857611607610fd8565b5b6116148782880161151b565b91505092959194509250565b600081519050919050565b600082825260208201905092915050565b6000819050602082019050919050565b61165581610f8d565b82525050565b6000611667838361164c565b60208301905092915050565b6000602082019050919050565b600061168b82611620565b611695818561162b565b93506116a08361163c565b8060005b838110156116d15781516116b8888261165b565b97506116c383611673565b9250506001810190506116a4565b5085935050505092915050565b6116e781611162565b82525050565b6116f68161119d565b82525050565b611705816111d3565b82525050565b600060a08301600083015184820360008601526117288282611680565b915050602083015184820360208601526117428282611680565b915050604083015161175760408601826116de565b50606083015161176a60608601826116ed565b50608083015161177d60808601826116fc565b508091505092915050565b600060208201905081810360008301526117a2818461170b565b905092915050565b7f4e487b7100000000000000000000000000000000000000000000000000000000600052603260045260246000fd5b6000819050919050565b60006117fe6117f96117f484610f6d565b6117d9565b610f6d565b9050919050565b6000611810826117e3565b9050919050565b600061182282611805565b9050919050565b61183281611817565b82525050565b600081519050919050565b600082825260208201905092915050565b6000819050602082019050919050565b600061186f82611805565b9050919050565b61187f81611864565b82525050565b60006118918383611876565b60208301905092915050565b6000602082019050919050565b60006118b582611838565b6118bf8185611843565b93506118ca83611854565b8060005b838110156118fb5781516118e28882611885565b97506118ed8361189d565b9250506001810190506118ce565b5085935050505092915050565b600081519050919050565b600082825260208201905092915050565b6000819050602082019050919050565b600061194083836116ed565b60208301905092915050565b6000602082019050919050565b600061196482611908565b61196e8185611913565b935061197983611924565b8060005b838110156119aa5781516119918882611934565b975061199c8361194c565b92505060018101905061197d565b5085935050505092915050565b600081519050919050565b600082825260208201905092915050565b60005b838110156119f15780820151818401526020810190506119d6565b60008484015250505050565b6000611a08826119b7565b611a1281856119c2565b9350611a228185602086016119d3565b611a2b81610fe2565b840191505092915050565b6000608082019050611a4b6000830187611829565b8181036020830152611a5d81866118aa565b90508181036040830152611a718185611959565b90508181036060830152611a8581846119fd565b905095945050505050565b600080fd5b600080fd5b600081519050611aa98161109f565b92915050565b6000611ac2611abd8461106e565b611053565b90508083825260208201905060208402830185811115611ae557611ae461109a565b5b835b81811015611b0e5780611afa8882611a9a565b845260208401935050602081019050611ae7565b5050509392505050565b600082601f830112611b2d57611b2c610fdd565b5b8151611b3d848260208601611aaf565b91505092915050565b600081519050611b5581611171565b92915050565b600081519050611b6a816111a7565b92915050565b600081519050611b7f816111df565b92915050565b600060a08284031215611b9b57611b9a611a90565b5b611ba560a0611053565b9050600082015167ffffffffffffffff811115611bc557611bc4611a95565b5b611bd184828501611b18565b600083015250602082015167ffffffffffffffff811115611bf557611bf4611a95565b5b611c0184828501611b18565b6020830152506040611c1584828501611b46565b6040830152506060611c2984828501611b5b565b6060830152506080611c3d84828501611b70565b60808301525092915050565b600060208284031215611c5f57611c5e610fd3565b5b600082015167ffffffffffffffff811115611c7d57611c7c610fd8565b5b611c8984828501611b85565b91505092915050565b600060208284031215611ca857611ca7610fd3565b5b6000611cb684828501611b5b565b91505092915050565b611cc88161119d565b82525050565b6000604082019050611ce36000830185610f9f565b611cf06020830184611cbf565b9392505050565b600060208284031215611d0d57611d0c610fd3565b5b6000611d1b84828501611b70565b91505092915050565b611d2d81610f6d565b82525050565b60e082016000820151611d49600085018261164c565b506020820151611d5c602085018261164c565b506040820151611d6f60408501826116de565b506060820151611d82606085018261164c565b506080820151611d9560808501826116ed565b5060a0820151611da860a08501826116ed565b5060c0820151611dbb60c0850182611d24565b50505050565b600060e082019050611dd66000830184611d33565b92915050565b600081519050919050565b600082825260208201905092915050565b6000819050602082019050919050565b608082016000820151611e1e600085018261164c565b506020820151611e31602085018261164c565b506040820151611e4460408501826116fc565b506060820151611e57606085018261164c565b50505050565b6000611e698383611e08565b60808301905092915050565b6000602082019050919050565b6000611e8d82611ddc565b611e978185611de7565b9350611ea283611df8565b8060005b83811015611ed3578151611eba8882611e5d565b9750611ec583611e75565b925050600181019050611ea6565b5085935050505092915050565b6000604082019050611ef56000830185611cbf565b8181036020830152611f078184611e82565b90509392505050565b6000611f23611f1e846113d1565b611053565b90508083825260208201905060208402830185811115611f4657611f4561109a565b5b835b81811015611f6f5780611f5b8882611b5b565b845260208401935050602081019050611f48565b5050509392505050565b600082601f830112611f8e57611f8d610fdd565b5b8151611f9e848260208601611f10565b91505092915050565b600060208284031215611fbd57611fbc610fd3565b5b600082015167ffffffffffffffff811115611fdb57611fda610fd8565b5b611fe784828501611f79565b91505092915050565b600060a0820190506120056000830188611cbf565b6120126020830187611cbf565b81810360408301526120248186611e82565b90506120336060830185610f9f565b6120406080830184611cbf565b9695505050505050565b600081905092915050565b6000612060826119b7565b61206a818561204a565b935061207a8185602086016119d3565b80840191505092915050565b60006120928284612055565b915081905092915050565b600082825260208201905092915050565b7f5341000000000000000000000000000000000000000000000000000000000000600082015250565b60006120e460028361209d565b91506120ef826120ae565b602082019050919050565b60006020820190508181036000830152612113816120d7565b905091905056fea2646970667358221220fc02e3876f574370fdf2c09d219893b06f87d891a19ddb9a33474c3e06f3433064736f6c63430008120033",
  "linkReferences": {},
  "deployedLinkReferences": {}
}